{
  "contractName": "AggregatorProxy",
  "abi": [
    {
      "inputs": [
        {
          "internalType": "address",
          "name": "_aggregator",
          "type": "address"
        }
      ],
      "stateMutability": "nonpayable",
      "type": "constructor"
    },
    {
      "anonymous": false,
      "inputs": [
        {
          "indexed": true,
          "internalType": "int256",
          "name": "current",
          "type": "int256"
        },
        {
          "indexed": true,
          "internalType": "uint256",
          "name": "roundId",
          "type": "uint256"
        },
        {
          "indexed": false,
          "internalType": "uint256",
          "name": "timestamp",
          "type": "uint256"
        }
      ],
      "name": "AnswerUpdated",
      "type": "event"
    },
    {
      "anonymous": false,
      "inputs": [
        {
          "indexed": true,
          "internalType": "uint256",
          "name": "roundId",
          "type": "uint256"
        },
        {
          "indexed": true,
          "internalType": "address",
          "name": "startedBy",
          "type": "address"
        },
        {
          "indexed": false,
          "internalType": "uint256",
          "name": "startedAt",
          "type": "uint256"
        }
      ],
      "name": "NewRound",
      "type": "event"
    },
    {
      "anonymous": false,
      "inputs": [
        {
          "indexed": true,
          "internalType": "address",
          "name": "from",
          "type": "address"
        },
        {
          "indexed": true,
          "internalType": "address",
          "name": "to",
          "type": "address"
        }
      ],
      "name": "OwnershipTransferRequested",
      "type": "event"
    },
    {
      "anonymous": false,
      "inputs": [
        {
          "indexed": true,
          "internalType": "address",
          "name": "from",
          "type": "address"
        },
        {
          "indexed": true,
          "internalType": "address",
          "name": "to",
          "type": "address"
        }
      ],
      "name": "OwnershipTransfered",
      "type": "event"
    },
    {
      "inputs": [],
      "name": "acceptOwnership",
      "outputs": [],
      "stateMutability": "nonpayable",
      "type": "function"
    },
    {
      "inputs": [],
      "name": "aggregator",
      "outputs": [
        {
          "internalType": "contract AggregatorInterface",
          "name": "",
          "type": "address"
        }
      ],
      "stateMutability": "view",
      "type": "function"
    },
    {
      "inputs": [],
      "name": "owner",
      "outputs": [
        {
          "internalType": "address payable",
          "name": "",
          "type": "address"
        }
      ],
      "stateMutability": "view",
      "type": "function"
    },
    {
      "inputs": [
        {
          "internalType": "address",
          "name": "_to",
          "type": "address"
        }
      ],
      "name": "transferOwnership",
      "outputs": [],
      "stateMutability": "nonpayable",
      "type": "function"
    },
    {
      "inputs": [],
      "name": "latestAnswer",
      "outputs": [
        {
          "internalType": "int256",
          "name": "",
          "type": "int256"
        }
      ],
      "stateMutability": "view",
      "type": "function"
    },
    {
      "inputs": [],
      "name": "latestTimestamp",
      "outputs": [
        {
          "internalType": "uint256",
          "name": "",
          "type": "uint256"
        }
      ],
      "stateMutability": "view",
      "type": "function"
    },
    {
      "inputs": [
        {
          "internalType": "uint256",
          "name": "_roundId",
          "type": "uint256"
        }
      ],
      "name": "getAnswer",
      "outputs": [
        {
          "internalType": "int256",
          "name": "",
          "type": "int256"
        }
      ],
      "stateMutability": "view",
      "type": "function"
    },
    {
      "inputs": [
        {
          "internalType": "uint256",
          "name": "_roundId",
          "type": "uint256"
        }
      ],
      "name": "getTimestamp",
      "outputs": [
        {
          "internalType": "uint256",
          "name": "",
          "type": "uint256"
        }
      ],
      "stateMutability": "view",
      "type": "function"
    },
    {
      "inputs": [],
      "name": "latestRound",
      "outputs": [
        {
          "internalType": "uint256",
          "name": "",
          "type": "uint256"
        }
      ],
      "stateMutability": "view",
      "type": "function"
    },
    {
      "inputs": [
        {
          "internalType": "address",
          "name": "_aggregator",
          "type": "address"
        }
      ],
      "name": "setAggregator",
      "outputs": [],
      "stateMutability": "nonpayable",
      "type": "function"
    },
    {
      "inputs": [],
      "name": "destroy",
      "outputs": [],
      "stateMutability": "nonpayable",
      "type": "function"
    }
  ],
  "bytecode": "0x608060405234801561001057600080fd5b506040516107203803806107208339818101604052602081101561003357600080fd5b5051600080546001600160a01b03191633179055610059816001600160e01b0361005f16565b506100e0565b6000546001600160a01b031633146100be576040805162461bcd60e51b815260206004820152601660248201527f4f6e6c792063616c6c61626c65206279206f776e657200000000000000000000604482015290519081900360640190fd5b600280546001600160a01b0319166001600160a01b0392909216919091179055565b610631806100ef6000396000f3fe608060405234801561001057600080fd5b50600436106100a95760003560e01c806383197ef01161007157806383197ef0146101065780638da5cb5b1461010e578063b5ab58dc14610116578063b633620c14610133578063f2fde38b14610150578063f9120af614610176576100a9565b8063245a7bfc146100ae57806350d25bcd146100d2578063668a0f02146100ec57806379ba5097146100f45780638205bf6a146100fe575b600080fd5b6100b661019c565b604080516001600160a01b039092168252519081900360200190f35b6100da6101ab565b60408051918252519081900360200190f35b6100da6101ba565b6100fc6101c4565b005b6100da610273565b6100fc61027d565b6100b66102e3565b6100da6004803603602081101561012c57600080fd5b50356102f2565b6100da6004803603602081101561014957600080fd5b5035610303565b6100fc6004803603602081101561016657600080fd5b50356001600160a01b031661030e565b6100fc6004803603602081101561018c57600080fd5b50356001600160a01b03166103b7565b6002546001600160a01b031681565b60006101b5610431565b905090565b60006101b56104a7565b6001546001600160a01b0316331461021c576040805162461bcd60e51b815260206004820152601660248201527526bab9ba10313290383937b837b9b2b21037bbb732b960511b604482015290519081900360640190fd5b60008054336001600160a01b0319808316821784556001805490911690556040516001600160a01b0390921692909183917f0d18b5fd22306e373229b9439188228edca81207d1667f604daf6cef8aa3ee6791a350565b60006101b56104ec565b6000546001600160a01b031633146102d5576040805162461bcd60e51b815260206004820152601660248201527527b7363c9031b0b63630b1363290313c9037bbb732b960511b604482015290519081900360640190fd5b6000546001600160a01b0316ff5b6000546001600160a01b031681565b60006102fd82610531565b92915050565b60006102fd826105af565b6000546001600160a01b03163314610366576040805162461bcd60e51b815260206004820152601660248201527527b7363c9031b0b63630b1363290313c9037bbb732b960511b604482015290519081900360640190fd5b600180546001600160a01b0319166001600160a01b0383811691821790925560008054604051929316917fed8889f560326eb138920d842192f0eb3dd22b4f139c87a2c57538e05bae12789190a350565b6000546001600160a01b0316331461040f576040805162461bcd60e51b815260206004820152601660248201527527b7363c9031b0b63630b1363290313c9037bbb732b960511b604482015290519081900360640190fd5b600280546001600160a01b0319166001600160a01b0392909216919091179055565b600254604080516350d25bcd60e01b815290516000926001600160a01b0316916350d25bcd916004808301926020929190829003018186803b15801561047657600080fd5b505afa15801561048a573d6000803e3d6000fd5b505050506040513d60208110156104a057600080fd5b5051905090565b60025460408051633345078160e11b815290516000926001600160a01b03169163668a0f02916004808301926020929190829003018186803b15801561047657600080fd5b60025460408051634102dfb560e11b815290516000926001600160a01b031691638205bf6a916004808301926020929190829003018186803b15801561047657600080fd5b60025460408051632d6ad63760e21b81526004810184905290516000926001600160a01b03169163b5ab58dc916024808301926020929190829003018186803b15801561057d57600080fd5b505afa158015610591573d6000803e3d6000fd5b505050506040513d60208110156105a757600080fd5b505192915050565b60025460408051632d8cd88360e21b81526004810184905290516000926001600160a01b03169163b633620c916024808301926020929190829003018186803b15801561057d57600080fdfea2646970667358221220e243ffd0bd8c86a5d635540b3dc6c24af412a655b59e52c9191b047ead976dcc64736f6c63430006020033",
  "source": "pragma solidity 0.6.2;\n\nimport \"./AggregatorInterface.sol\";\nimport \"../Owned.sol\";\nimport \"./Whitelisted.sol\";\n\n/**\n * @title A trusted proxy for updating where current answers are read from\n * @notice This contract provides a consistent address for the\n * CurrentAnwerInterface but delegates where it reads from to the owner, who is\n * trusted to update it.\n */\ncontract AggregatorProxy is AggregatorInterface, Owned {\n\n  AggregatorInterface public aggregator;\n\n  constructor(address _aggregator) public Owned() {\n    setAggregator(_aggregator);\n  }\n\n  /**\n   * @notice Reads the current answer from aggregator delegated to.\n   */\n  function latestAnswer()\n    external\n    view\n    virtual\n    override\n    returns (int256)\n  {\n    return _latestAnswer();\n  }\n\n  /**\n   * @notice Reads the last updated height from aggregator delegated to.\n   */\n  function latestTimestamp()\n    external\n    view\n    virtual\n    override\n    returns (uint256)\n  {\n    return _latestTimestamp();\n  }\n\n  /**\n   * @notice get past rounds answers\n   * @param _roundId the answer number to retrieve the answer for\n   */\n  function getAnswer(uint256 _roundId)\n    external\n    view\n    virtual\n    override\n    returns (int256)\n  {\n    return _getAnswer(_roundId);\n  }\n\n  /**\n   * @notice get block timestamp when an answer was last updated\n   * @param _roundId the answer number to retrieve the updated timestamp for\n   */\n  function getTimestamp(uint256 _roundId)\n    external\n    view\n    virtual\n    override\n    returns (uint256)\n  {\n    return _getTimestamp(_roundId);\n  }\n\n  /**\n   * @notice get the latest completed round where the answer was updated\n   */\n  function latestRound()\n    external\n    view\n    virtual\n    override\n    returns (uint256)\n  {\n    return _latestRound();\n  }\n\n  /**\n   * @notice Allows the owner to update the aggregator address.\n   * @param _aggregator The new address for the aggregator contract\n   */\n  function setAggregator(address _aggregator)\n    public\n    onlyOwner()\n  {\n    aggregator = AggregatorInterface(_aggregator);\n  }\n\n  /**\n   * @notice Allows the owner to destroy the contract if it is not intended to\n   * be used any longer.\n   */\n  function destroy()\n    external\n    onlyOwner()\n  {\n    selfdestruct(owner);\n  }\n\n  /*\n   * Internal\n   */\n\n  function _latestAnswer()\n    internal\n    view\n    returns (int256)\n  {\n    return aggregator.latestAnswer();\n  }\n\n  function _latestTimestamp()\n    internal\n    view\n    returns (uint256)\n  {\n    return aggregator.latestTimestamp();\n  }\n\n  function _getAnswer(uint256 _roundId)\n    internal\n    view\n    returns (int256)\n  {\n    return aggregator.getAnswer(_roundId);\n  }\n\n  function _getTimestamp(uint256 _roundId)\n    internal\n    view\n    returns (uint256)\n  {\n    return aggregator.getTimestamp(_roundId);\n  }\n\n  function _latestRound()\n    internal\n    view\n    returns (uint256)\n  {\n    return aggregator.latestRound();\n  }\n}\n",
  "sourcePath": "@chainlink/contracts/src/v0.6/dev/AggregatorProxy.sol",
  "compiler": {
    "name": "solc",
    "version": "0.6.2+commit.bacdbe57.Emscripten.clang"
  },
  "schemaVersion": "3.0.23",
  "updatedAt": "2020-04-08T02:12:58.361Z",
  "devdoc": {
    "methods": {
      "acceptOwnership()": {
        "details": "Allows an ownership transfer to be completed by the recipient."
      },
      "getAnswer(uint256)": {
        "params": {
          "_roundId": "the answer number to retrieve the answer for"
        }
      },
      "getTimestamp(uint256)": {
        "params": {
          "_roundId": "the answer number to retrieve the updated timestamp for"
        }
      },
      "setAggregator(address)": {
        "params": {
          "_aggregator": "The new address for the aggregator contract"
        }
      },
      "transferOwnership(address)": {
        "details": "Allows an owner to begin transferring ownership to a new address, pending."
      }
    },
    "title": "A trusted proxy for updating where current answers are read from"
  },
  "userdoc": {
    "methods": {
      "destroy()": {
        "notice": "Allows the owner to destroy the contract if it is not intended to be used any longer."
      },
      "getAnswer(uint256)": {
        "notice": "get past rounds answers"
      },
      "getTimestamp(uint256)": {
        "notice": "get block timestamp when an answer was last updated"
      },
      "latestAnswer()": {
        "notice": "Reads the current answer from aggregator delegated to."
      },
      "latestRound()": {
        "notice": "get the latest completed round where the answer was updated"
      },
      "latestTimestamp()": {
        "notice": "Reads the last updated height from aggregator delegated to."
      },
      "setAggregator(address)": {
        "notice": "Allows the owner to update the aggregator address."
      }
    },
    "notice": "This contract provides a consistent address for the CurrentAnwerInterface but delegates where it reads from to the owner, who is trusted to update it."
  }
}