{
  "contractName": "LeveragedPayoutContract",
  "abi": [
    {
      "inputs": [
        {
          "internalType": "uint256",
          "name": "assetLeverage",
          "type": "uint256"
        }
      ],
      "stateMutability": "nonpayable",
      "type": "constructor"
    },
    {
      "inputs": [
        {
          "internalType": "uint256",
          "name": "initialWeight",
          "type": "uint256"
        },
        {
          "internalType": "uint256",
          "name": "_normalizedAssetChange",
          "type": "uint256"
        },
        {
          "internalType": "uint256",
          "name": "_normalizedCollateralChange",
          "type": "uint256"
        }
      ],
      "name": "calculateWeight",
      "outputs": [
        {
          "internalType": "uint256",
          "name": "",
          "type": "uint256"
        }
      ],
      "stateMutability": "nonpayable",
      "type": "function"
    },
    {
      "inputs": [
        {
          "internalType": "uint256",
          "name": "initialWeight",
          "type": "uint256"
        },
        {
          "internalType": "uint256",
          "name": "startingAssetPrice",
          "type": "uint256"
        },
        {
          "internalType": "uint256",
          "name": "endingAssetPrice",
          "type": "uint256"
        },
        {
          "internalType": "uint256",
          "name": "startingCollateralPrice",
          "type": "uint256"
        },
        {
          "internalType": "uint256",
          "name": "endingCollateralPrice",
          "type": "uint256"
        }
      ],
      "name": "calculateWeights",
      "outputs": [
        {
          "internalType": "uint256",
          "name": "",
          "type": "uint256"
        }
      ],
      "stateMutability": "nonpayable",
      "type": "function"
    },
    {
      "inputs": [
        {
          "internalType": "uint256",
          "name": "start",
          "type": "uint256"
        },
        {
          "internalType": "uint256",
          "name": "finish",
          "type": "uint256"
        }
      ],
      "name": "normalizedChange",
      "outputs": [
        {
          "internalType": "uint256",
          "name": "",
          "type": "uint256"
        }
      ],
      "stateMutability": "nonpayable",
      "type": "function"
    },
    {
      "inputs": [
        {
          "internalType": "uint256",
          "name": "normalizedAssetChange",
          "type": "uint256"
        }
      ],
      "name": "payoutFunction",
      "outputs": [
        {
          "internalType": "uint256",
          "name": "",
          "type": "uint256"
        }
      ],
      "stateMutability": "nonpayable",
      "type": "function"
    }
  ],
  "bytecode": "0x608060405234801561001057600080fd5b506040516105d13803806105d18339818101604052602081101561003357600080fd5b505160005561058a806100476000396000f3fe608060405234801561001057600080fd5b506004361061004c5760003560e01c80631836639e146100515780636be02bd3146100985780638c28c795146100c1578063e18d9790146100e4575b600080fd5b610086600480360360a081101561006757600080fd5b5080359060208101359060408101359060608101359060800135610101565b60408051918252519081900360200190f35b610086600480360360608110156100ae57600080fd5b5080359060208101359060400135610280565b610086600480360360408110156100d757600080fd5b5080359060200135610321565b610086600480360360208110156100fa57600080fd5b5035610344565b600080306001600160a01b0316638c28c79587876040518363ffffffff1660e01b81526004018083815260200182815260200192505050602060405180830381600087803b15801561015257600080fd5b505af1158015610166573d6000803e3d6000fd5b505050506040513d602081101561017c57600080fd5b505160408051638c28c79560e01b8152600481018790526024810186905290519192506000913091638c28c79591604480830192602092919082900301818787803b1580156101ca57600080fd5b505af11580156101de573d6000803e3d6000fd5b505050506040513d60208110156101f457600080fd5b505160408051636be02bd360e01b8152600481018b9052602481018590526044810183905290519192503091636be02bd3916064808201926020929091908290030181600087803b15801561024857600080fd5b505af115801561025c573d6000803e3d6000fd5b505050506040513d602081101561027257600080fd5b505198975050505050505050565b600080306001600160a01b031663e18d9790856040518263ffffffff1660e01b815260040180828152602001915050602060405180830381600087803b1580156102c957600080fd5b505af11580156102dd573d6000803e3d6000fd5b505050506040513d60208110156102f357600080fd5b5051600190810191508301600061030a8383610352565b90506103168188610399565b979650505050505050565b6000828203836103396103348383610352565b610401565b925050505b92915050565b600061033e82600054610399565b60008161035e57600080fd5b600061036a848461040a565b90506f7fffffffffffffffffffffffffffffff6001600160801b038216111561039257600080fd5b9392505050565b6000816103a85750600061033e565b600083600f0b12156103b957600080fd5b600f83900b6001600160801b038316810260401c90608084901c026001600160c01b038111156103e857600080fd5b60401b81198111156103f957600080fd5b019392505050565b600f0b60401b90565b60008161041657600080fd5b60006001600160c01b03841161043b5782604085901b8161043357fe5b049050610540565b60c084811c6401000000008110610454576020918201911c5b620100008110610466576010918201911c5b6101008110610477576008918201911c5b60108110610487576004918201911c5b60048110610497576002918201911c5b600281106104a6576001820191505b60bf820360018603901c6001018260ff0387901b816104c157fe5b0492506001600160801b038311156104d857600080fd5b608085901c83026001600160801b038616840260c088901c604089901b82811015610504576001820391505b608084901b9290038281101561051b576001820391505b829003608084901c821461052b57fe5b88818161053457fe5b04870196505050505050505b6001600160801b0381111561039257600080fdfea26469706673582212202c0cb76f14c95c8b128575a23653ab6ad4de7fac6bc737adeec3d19555b14db864736f6c63430006020033",
  "source": "pragma solidity >=0.4.22 <0.7.0;\n//pragma solidity ^0.4.2;\nimport \"../PayoutContract.sol\";\nimport \"../lib/ABDKMath64x64.sol\";\n//import \"../PayoutContractFactory.sol\";\n\n\n\n\ncontract LeveragedPayoutContract is PayoutContract {\n    //@param\n  uint256 leverage;\n\n  constructor(uint256 assetLeverage) public {\n    leverage = assetLeverage;\n  }\n\n  function payoutFunction(uint256 normalizedAssetChange) public virtual override returns (uint256) {\n    return ABDKMath64x64.mulu(int128(normalizedAssetChange), leverage);\n  }\n\n}\n",
  "sourcePath": "/Users/chasesmith/projects/derivative/contracts/PayoutContracts/LeveragedPayoutContract.sol",
  "compiler": {
    "name": "solc",
    "version": "0.6.2+commit.bacdbe57.Emscripten.clang"
  },
  "schemaVersion": "3.0.23",
  "updatedAt": "2020-04-08T02:12:58.305Z",
  "devdoc": {
    "methods": {}
  },
  "userdoc": {
    "methods": {}
  }
}