{
  "contractName": "Oracle",
  "abi": [
    {
      "inputs": [
        {
          "internalType": "string",
          "name": "_name",
          "type": "string"
        },
        {
          "internalType": "string",
          "name": "_symbol",
          "type": "string"
        },
        {
          "internalType": "address",
          "name": "_aggregator",
          "type": "address"
        }
      ],
      "stateMutability": "nonpayable",
      "type": "constructor"
    },
    {
      "inputs": [],
      "name": "getLatestAnswer",
      "outputs": [
        {
          "internalType": "int256",
          "name": "",
          "type": "int256"
        }
      ],
      "stateMutability": "view",
      "type": "function"
    },
    {
      "inputs": [],
      "name": "getLatestTimestamp",
      "outputs": [
        {
          "internalType": "uint256",
          "name": "",
          "type": "uint256"
        }
      ],
      "stateMutability": "view",
      "type": "function"
    },
    {
      "inputs": [
        {
          "internalType": "uint256",
          "name": "_back",
          "type": "uint256"
        }
      ],
      "name": "getPreviousAnswer",
      "outputs": [
        {
          "internalType": "int256",
          "name": "",
          "type": "int256"
        }
      ],
      "stateMutability": "view",
      "type": "function"
    },
    {
      "inputs": [
        {
          "internalType": "uint256",
          "name": "_back",
          "type": "uint256"
        }
      ],
      "name": "getPreviousTimestamp",
      "outputs": [
        {
          "internalType": "uint256",
          "name": "",
          "type": "uint256"
        }
      ],
      "stateMutability": "view",
      "type": "function"
    }
  ],
  "bytecode": "0x608060405234801561001057600080fd5b506040516106863803806106868339818101604052606081101561003357600080fd5b810190808051604051939291908464010000000082111561005357600080fd5b90830190602082018581111561006857600080fd5b825164010000000081118282018810171561008257600080fd5b82525081516020918201929091019080838360005b838110156100af578181015183820152602001610097565b50505050905090810190601f1680156100dc5780820380516001836020036101000a031916815260200191505b50604052602001805160405193929190846401000000008211156100ff57600080fd5b90830190602082018581111561011457600080fd5b825164010000000081118282018810171561012e57600080fd5b82525081516020918201929091019080838360005b8381101561015b578181015183820152602001610143565b50505050905090810190601f1680156101885780820380516001836020036101000a031916815260200191505b50604052602090810151600280546001600160a01b0319166001600160a01b03831617905585519093506101c292506000918601906101df565b5081516101d69060019060208501906101df565b5050505061027a565b828054600181600116156101000203166002900490600052602060002090601f016020900481019282601f1061022057805160ff191683800117855561024d565b8280016001018555821561024d579182015b8281111561024d578251825591602001919060010190610232565b5061025992915061025d565b5090565b61027791905b808211156102595760008155600101610263565b90565b6103fd806102896000396000f3fe608060405234801561001057600080fd5b506004361061004c5760003560e01c8063038921251461005157806396237c0214610080578063d8d7e95014610088578063f43b52cb146100a5575b600080fd5b61006e6004803603602081101561006757600080fd5b50356100ad565b60408051918252519081900360200190f35b61006e6101f6565b61006e6004803603602081101561009e57600080fd5b503561026c565b61006e610382565b600080600260009054906101000a90046001600160a01b03166001600160a01b031663668a0f026040518163ffffffff1660e01b815260040160206040518083038186803b1580156100fe57600080fd5b505afa158015610112573d6000803e3d6000fd5b505050506040513d602081101561012857600080fd5b5051905080831115610176576040805162461bcd60e51b81526020600482015260126024820152714e6f7420656e6f75676820686973746f727960701b604482015290519081900360640190fd5b60025460408051632d8cd88360e21b8152858403600482015290516001600160a01b039092169163b633620c91602480820192602092909190829003018186803b1580156101c357600080fd5b505afa1580156101d7573d6000803e3d6000fd5b505050506040513d60208110156101ed57600080fd5b50519392505050565b600254604080516350d25bcd60e01b815290516000926001600160a01b0316916350d25bcd916004808301926020929190829003018186803b15801561023b57600080fd5b505afa15801561024f573d6000803e3d6000fd5b505050506040513d602081101561026557600080fd5b5051905090565b600080600260009054906101000a90046001600160a01b03166001600160a01b031663668a0f026040518163ffffffff1660e01b815260040160206040518083038186803b1580156102bd57600080fd5b505afa1580156102d1573d6000803e3d6000fd5b505050506040513d60208110156102e757600080fd5b5051905080831115610335576040805162461bcd60e51b81526020600482015260126024820152714e6f7420656e6f75676820686973746f727960701b604482015290519081900360640190fd5b60025460408051632d6ad63760e21b8152858403600482015290516001600160a01b039092169163b5ab58dc91602480820192602092909190829003018186803b1580156101c357600080fd5b60025460408051634102dfb560e11b815290516000926001600160a01b031691638205bf6a916004808301926020929190829003018186803b15801561023b57600080fdfea26469706673582212208403d4ce086dfcfb314c58e561a0635ba13b5efd8c935f19dbbe0f064aa97ba064736f6c63430006020033",
  "source": "pragma solidity >=0.4.22 <0.7.0;\n//pragma solidity ^0.4.2;\nimport \"@chainlink/contracts/src/v0.6/dev/AggregatorProxy.sol\";\n\ncontract OracleFactory {\n  function makeOracle(string memory name, string memory symbol, address referenceDataAddress) public returns (address) {\n    address c = address(new Oracle(name, symbol, referenceDataAddress));\n    return c;\n  }\n}\n\ncontract Oracle {\n  string name;\n  string symbol;\n  AggregatorInterface internal ref;\n\n  constructor(string memory _name, string memory _symbol, address _aggregator) public {\n    ref = AggregatorProxy(_aggregator);\n    name = _name;\n    symbol = _symbol;\n  }\n\n  function getLatestAnswer() public view returns (int256) {\n    return ref.latestAnswer();\n  }\n\n  function getLatestTimestamp() public view returns (uint256) {\n    return ref.latestTimestamp();\n  }\n\n  function getPreviousAnswer(uint256 _back) public view returns (int256) {\n    uint256 latest = ref.latestRound();\n    require(_back <= latest, \"Not enough history\");\n    return ref.getAnswer(latest - _back);\n  }\n\n  function getPreviousTimestamp(uint256 _back) public view returns (uint256) {\n    uint256 latest = ref.latestRound();\n    require(_back <= latest, \"Not enough history\");\n    return ref.getTimestamp(latest - _back);\n  }\n}\n",
  "sourcePath": "/Users/chasesmith/projects/derivative/contracts/Oracle.sol",
  "compiler": {
    "name": "solc",
    "version": "0.6.2+commit.bacdbe57.Emscripten.clang"
  },
  "schemaVersion": "3.0.23",
  "updatedAt": "2020-04-08T02:12:58.300Z",
  "devdoc": {
    "methods": {}
  },
  "userdoc": {
    "methods": {}
  }
}