{
  "contractName": "VaultFactory",
  "abi": [
    {
      "inputs": [
        {
          "internalType": "contract ERC20",
          "name": "_collateralToken",
          "type": "address"
        },
        {
          "internalType": "uint256",
          "name": "_vaultCreationFee",
          "type": "uint256"
        }
      ],
      "stateMutability": "nonpayable",
      "type": "constructor"
    },
    {
      "anonymous": false,
      "inputs": [
        {
          "indexed": false,
          "internalType": "address",
          "name": "vault",
          "type": "address"
        },
        {
          "indexed": false,
          "internalType": "string",
          "name": "name",
          "type": "string"
        },
        {
          "indexed": false,
          "internalType": "uint256",
          "name": "creationFee",
          "type": "uint256"
        }
      ],
      "name": "VaultCreated",
      "type": "event"
    },
    {
      "anonymous": false,
      "inputs": [
        {
          "indexed": false,
          "internalType": "address",
          "name": "vault",
          "type": "address"
        },
        {
          "indexed": false,
          "internalType": "uint256",
          "name": "oldCreationFee",
          "type": "uint256"
        },
        {
          "indexed": false,
          "internalType": "uint256",
          "name": "newCreationFee",
          "type": "uint256"
        }
      ],
      "name": "vaultCreationFeeUpdated",
      "type": "event"
    },
    {
      "inputs": [],
      "name": "collateralToken",
      "outputs": [
        {
          "internalType": "contract ERC20",
          "name": "",
          "type": "address"
        }
      ],
      "stateMutability": "view",
      "type": "function"
    },
    {
      "inputs": [],
      "name": "owner",
      "outputs": [
        {
          "internalType": "address",
          "name": "",
          "type": "address"
        }
      ],
      "stateMutability": "view",
      "type": "function"
    },
    {
      "inputs": [],
      "name": "vaultCreationFee",
      "outputs": [
        {
          "internalType": "uint256",
          "name": "",
          "type": "uint256"
        }
      ],
      "stateMutability": "view",
      "type": "function"
    },
    {
      "inputs": [
        {
          "internalType": "contract ERC20",
          "name": "_collateralToken",
          "type": "address"
        }
      ],
      "name": "setCollateralToken",
      "outputs": [],
      "stateMutability": "nonpayable",
      "type": "function"
    },
    {
      "inputs": [
        {
          "internalType": "uint256",
          "name": "amount",
          "type": "uint256"
        }
      ],
      "name": "withdrawVaultFees",
      "outputs": [],
      "stateMutability": "nonpayable",
      "type": "function"
    },
    {
      "inputs": [
        {
          "internalType": "uint256",
          "name": "amount",
          "type": "uint256"
        }
      ],
      "name": "calculateVaultCreationFee",
      "outputs": [
        {
          "internalType": "uint256",
          "name": "",
          "type": "uint256"
        }
      ],
      "stateMutability": "nonpayable",
      "type": "function"
    },
    {
      "inputs": [
        {
          "internalType": "uint256",
          "name": "newFee",
          "type": "uint256"
        }
      ],
      "name": "setVaultCreationFee",
      "outputs": [
        {
          "internalType": "bool",
          "name": "",
          "type": "bool"
        }
      ],
      "stateMutability": "nonpayable",
      "type": "function"
    }
  ],
  "bytecode": "0x608060405234801561001057600080fd5b506040516104a33803806104a38339818101604052604081101561003357600080fd5b508051602090910151600080546001600160a01b03199081163317909155600180546001600160a01b0390941693909116929092179091556002556104268061007d6000396000f3fe608060405234801561001057600080fd5b506004361061007d5760003560e01c8063b2016bd41161005b578063b2016bd4146100eb578063c69e3b9c146100f3578063c754203414610122578063cf0e7c40146101535761007d565b806364c98f5a14610082578063666181a9146100a15780638da5cb5b146100c7575b600080fd5b61009f6004803603602081101561009857600080fd5b503561015b565b005b61009f600480360360208110156100b757600080fd5b50356001600160a01b0316610245565b6100cf6102bd565b604080516001600160a01b039092168252519081900360200190f35b6100cf6102cc565b6101106004803603602081101561010957600080fd5b50356102db565b60408051918252519081900360200190f35b61013f6004803603602081101561013857600080fd5b50356102ef565b604080519115158252519081900360200190f35b610110610342565b6000546001600160a01b031633146101a45760405162461bcd60e51b81526004018080602001828103825260378152602001806103ba6037913960400191505060405180910390fd5b6003548111156101b357600080fd5b60015460008054604080516323b872dd60e01b81523060048201526001600160a01b03928316602482015260448101869052905191909316926323b872dd9260648083019360209390929083900390910190829087803b15801561021657600080fd5b505af115801561022a573d6000803e3d6000fd5b505050506040513d602081101561024057600080fd5b505050565b6000546001600160a01b0316331461028e5760405162461bcd60e51b81526004018080602001828103825260378152602001806103ba6037913960400191505060405180910390fd5b6003541561029b57600080fd5b600180546001600160a01b0319166001600160a01b0392909216919091179055565b6000546001600160a01b031681565b6001546001600160a01b031681565b60006102e960025483610348565b92915050565b600080546001600160a01b031633146103395760405162461bcd60e51b81526004018080602001828103825260378152602001806103ba6037913960400191505060405180910390fd5b60029190915590565b60025481565b600081610357575060006102e9565b600083600f0b121561036857600080fd5b600f83900b6fffffffffffffffffffffffffffffffff8316810260401c90608084901c026001600160c01b038111156103a057600080fd5b60401b81198111156103b157600080fd5b01939250505056fe46756e6374696f6e2063616e206f6e6c792062652072756e20627920746865206f776e6572206f66207468697320636f6e74726163742ea26469706673582212200d70b2c3b16f1f14de1d0fc598bce594d80458cb6074c2d371a3d47dac735c1964736f6c63430006020033",
  "source": "pragma solidity >=0.4.22 <0.7.0;\n\nimport \"./Oracle.sol\";\n//import \"./DerivativeToken.sol\";\nimport \"./PayoutContract.sol\";\nimport \"./lib/ABDKMath64x64.sol\";\nimport \"./Vault.sol\";\nimport \"./lib/ABDKMath64x64.sol\";\nimport \"@openzeppelin/contracts/deploy-ready/ERC20MinterPauser.sol\";\nimport \"@openzeppelin/contracts/token/ERC20/ERC20.sol\";\n\n contract VaultFactory {\n   address public owner;\n   ERC20 public collateralToken;\n   uint256 public vaultCreationFee;\n   uint256 accumulatedVaultFees;\n\n   event VaultCreated(address vault, string name, uint256 creationFee);\n   event vaultCreationFeeUpdated(address vault, uint256 oldCreationFee, uint256 newCreationFee);\n\n   //modifiers\n   modifier onlyOwner { require(msg.sender == owner, \"Function can only be run by the owner of this contract.\");\n       _;\n   }\n\n   constructor(ERC20 _collateralToken, uint256 _vaultCreationFee) public {\n     owner = msg.sender;\n     collateralToken = _collateralToken;\n   vaultCreationFee = _vaultCreationFee;\n }\n/*\n   function makeVault(string memory _name, string memory _symbol, Oracle _assetOracle, Oracle _collateralOracle, PayoutContract _payoutContract, uint256 _issuanceWeight, ERC20 _collateralToken, uint256 _issuanceTime, uint256 _settlementTime, uint256 _vaultIssuanceFee) public returns (Vault) {\n     return (new Vault(_name, _symbol, _assetOracle, _collateralOracle, _payoutContract, _issuanceWeight, _collateralToken, _issuanceTime, _settlementTime, _vaultIssuanceFee));\n   }\n\n   //function checkOracleValidity()\n\n   //function checkPayoutValidity() */\n\n   //function checkTimeValidity()\n\n   function setCollateralToken(ERC20 _collateralToken) public onlyOwner {\n     require(accumulatedVaultFees == 0);\n     collateralToken = _collateralToken;\n   }\n\n   function collectVaultCreationFee(address from, uint256 amount) internal {\n     uint256 fee = calculateVaultCreationFee(amount);\n     receiveToken(collateralToken, from, fee);\n   }\n\n   function withdrawVaultFees(uint256 amount) public onlyOwner {\n     require(amount <= accumulatedVaultFees);\n     collateralToken.transferFrom(address(this), owner, amount);\n   }\n\n   function calculateVaultCreationFee(uint256 amount) public returns (uint256) {\n     return ABDKMath64x64.mulu(int128(vaultCreationFee), amount);\n   }\n\n   function setVaultCreationFee(uint256 newFee) public onlyOwner returns (bool) {\n     vaultCreationFee = newFee;\n   }\n\n   function receiveToken(ERC20 contractAddress, address from, uint256 amount) internal {\n     require(contractAddress.allowance(from, address(this)) >= amount);\n     require(contractAddress.transferFrom(from, address(this), amount));\n   }\n\n   function sendToken(ERC20 contractAddress, address recipicient, uint256 amount) internal {\n        contractAddress.transferFrom(address(this), recipicient, amount);\n   }\n}\n",
  "sourcePath": "/Users/chasesmith/projects/derivative/contracts/VaultFactory.sol",
  "compiler": {
    "name": "solc",
    "version": "0.6.2+commit.bacdbe57.Emscripten.clang"
  },
  "schemaVersion": "3.0.23",
  "updatedAt": "2020-04-08T02:12:58.322Z",
  "devdoc": {
    "methods": {}
  },
  "userdoc": {
    "methods": {}
  }
}