{
  "contractName": "Vault",
  "abi": [
    {
      "inputs": [
        {
          "internalType": "string",
          "name": "_name",
          "type": "string"
        },
        {
          "internalType": "string",
          "name": "_symbol",
          "type": "string"
        },
        {
          "internalType": "contract Oracle",
          "name": "_assetOracle",
          "type": "address"
        },
        {
          "internalType": "contract Oracle",
          "name": "_collateralOracle",
          "type": "address"
        },
        {
          "internalType": "contract PayoutContract",
          "name": "_payoutContract",
          "type": "address"
        },
        {
          "internalType": "uint256",
          "name": "_issuanceWeight",
          "type": "uint256"
        },
        {
          "internalType": "address",
          "name": "_collateralToken",
          "type": "address"
        },
        {
          "internalType": "uint256",
          "name": "_issuanceTime",
          "type": "uint256"
        },
        {
          "internalType": "uint256",
          "name": "_settlementTime",
          "type": "uint256"
        },
        {
          "internalType": "uint256",
          "name": "_vaultIssuanceFee",
          "type": "uint256"
        }
      ],
      "stateMutability": "nonpayable",
      "type": "constructor"
    },
    {
      "anonymous": false,
      "inputs": [
        {
          "indexed": false,
          "internalType": "address",
          "name": "account",
          "type": "address"
        },
        {
          "indexed": false,
          "internalType": "uint256",
          "name": "amount",
          "type": "uint256"
        },
        {
          "indexed": false,
          "internalType": "uint256",
          "name": "settlementAmount",
          "type": "uint256"
        }
      ],
      "name": "DerivativePurchased",
      "type": "event"
    },
    {
      "anonymous": false,
      "inputs": [
        {
          "indexed": false,
          "internalType": "address",
          "name": "account",
          "type": "address"
        },
        {
          "indexed": false,
          "internalType": "address",
          "name": "contractAddress",
          "type": "address"
        },
        {
          "indexed": false,
          "internalType": "uint256",
          "name": "amount",
          "type": "uint256"
        },
        {
          "indexed": false,
          "internalType": "uint256",
          "name": "settlementAmount",
          "type": "uint256"
        }
      ],
      "name": "DerivativeSettled",
      "type": "event"
    },
    {
      "anonymous": false,
      "inputs": [
        {
          "indexed": false,
          "internalType": "string",
          "name": "name",
          "type": "string"
        },
        {
          "indexed": false,
          "internalType": "string",
          "name": "symbol",
          "type": "string"
        },
        {
          "indexed": false,
          "internalType": "uint256",
          "name": "issuanceTime",
          "type": "uint256"
        }
      ],
      "name": "VaultActivated",
      "type": "event"
    },
    {
      "anonymous": false,
      "inputs": [
        {
          "indexed": false,
          "internalType": "address",
          "name": "vault",
          "type": "address"
        },
        {
          "indexed": false,
          "internalType": "uint256",
          "name": "settlementTime",
          "type": "uint256"
        },
        {
          "indexed": false,
          "internalType": "uint256",
          "name": "assetPrice",
          "type": "uint256"
        },
        {
          "indexed": false,
          "internalType": "uint256",
          "name": "collateralPrice",
          "type": "uint256"
        },
        {
          "indexed": false,
          "internalType": "uint256",
          "name": "weight",
          "type": "uint256"
        }
      ],
      "name": "VaultIssued",
      "type": "event"
    },
    {
      "anonymous": false,
      "inputs": [
        {
          "indexed": false,
          "internalType": "address",
          "name": "vault",
          "type": "address"
        },
        {
          "indexed": false,
          "internalType": "uint256",
          "name": "assetPrice",
          "type": "uint256"
        },
        {
          "indexed": false,
          "internalType": "uint256",
          "name": "collateralPrice",
          "type": "uint256"
        },
        {
          "indexed": false,
          "internalType": "uint256",
          "name": "weight",
          "type": "uint256"
        }
      ],
      "name": "VaultSettled",
      "type": "event"
    },
    {
      "inputs": [],
      "name": "update",
      "outputs": [],
      "stateMutability": "nonpayable",
      "type": "function"
    },
    {
      "inputs": [
        {
          "internalType": "uint256",
          "name": "amount",
          "type": "uint256"
        }
      ],
      "name": "purchaseDerivatives",
      "outputs": [],
      "stateMutability": "nonpayable",
      "type": "function"
    },
    {
      "inputs": [
        {
          "internalType": "contract ERC20",
          "name": "contractAddress",
          "type": "address"
        },
        {
          "internalType": "address",
          "name": "from",
          "type": "address"
        },
        {
          "internalType": "uint256",
          "name": "amount",
          "type": "uint256"
        }
      ],
      "name": "receiveToken",
      "outputs": [],
      "stateMutability": "payable",
      "type": "function"
    },
    {
      "inputs": [
        {
          "internalType": "contract ERC20",
          "name": "contractAddress",
          "type": "address"
        },
        {
          "internalType": "address",
          "name": "recipicient",
          "type": "address"
        },
        {
          "internalType": "uint256",
          "name": "amount",
          "type": "uint256"
        }
      ],
      "name": "sendToken",
      "outputs": [],
      "stateMutability": "nonpayable",
      "type": "function"
    },
    {
      "inputs": [
        {
          "internalType": "uint256",
          "name": "amount",
          "type": "uint256"
        }
      ],
      "name": "calculateVaultFees",
      "outputs": [
        {
          "internalType": "uint256",
          "name": "",
          "type": "uint256"
        }
      ],
      "stateMutability": "nonpayable",
      "type": "function"
    },
    {
      "inputs": [
        {
          "internalType": "uint256",
          "name": "amount",
          "type": "uint256"
        }
      ],
      "name": "withdrawVaultFees",
      "outputs": [],
      "stateMutability": "nonpayable",
      "type": "function"
    },
    {
      "inputs": [
        {
          "internalType": "uint256",
          "name": "timestamp",
          "type": "uint256"
        }
      ],
      "name": "fetchAssetPrice",
      "outputs": [
        {
          "internalType": "uint256",
          "name": "",
          "type": "uint256"
        }
      ],
      "stateMutability": "nonpayable",
      "type": "function"
    },
    {
      "inputs": [
        {
          "internalType": "uint256",
          "name": "timeStamp",
          "type": "uint256"
        }
      ],
      "name": "fetchCollateralPrice",
      "outputs": [
        {
          "internalType": "uint256",
          "name": "",
          "type": "uint256"
        }
      ],
      "stateMutability": "nonpayable",
      "type": "function"
    },
    {
      "inputs": [
        {
          "internalType": "contract Oracle",
          "name": "_oracleAddress",
          "type": "address"
        },
        {
          "internalType": "uint256",
          "name": "timestamp",
          "type": "uint256"
        }
      ],
      "name": "fetchPrice",
      "outputs": [
        {
          "internalType": "uint256",
          "name": "",
          "type": "uint256"
        }
      ],
      "stateMutability": "nonpayable",
      "type": "function"
    },
    {
      "inputs": [],
      "name": "settleAccount",
      "outputs": [],
      "stateMutability": "nonpayable",
      "type": "function"
    },
    {
      "inputs": [
        {
          "internalType": "contract ERC20",
          "name": "contractAddress",
          "type": "address"
        },
        {
          "internalType": "address",
          "name": "user",
          "type": "address"
        },
        {
          "internalType": "uint256",
          "name": "amount",
          "type": "uint256"
        }
      ],
      "name": "settle",
      "outputs": [],
      "stateMutability": "nonpayable",
      "type": "function"
    },
    {
      "inputs": [
        {
          "internalType": "contract ERC20",
          "name": "contractAddress",
          "type": "address"
        },
        {
          "internalType": "uint256",
          "name": "amount",
          "type": "uint256"
        }
      ],
      "name": "getSettlementAmount",
      "outputs": [
        {
          "internalType": "uint256",
          "name": "",
          "type": "uint256"
        }
      ],
      "stateMutability": "nonpayable",
      "type": "function"
    },
    {
      "inputs": [
        {
          "internalType": "contract ERC20",
          "name": "contractAddress",
          "type": "address"
        }
      ],
      "name": "getSettlementWeight",
      "outputs": [
        {
          "internalType": "uint256",
          "name": "",
          "type": "uint256"
        }
      ],
      "stateMutability": "nonpayable",
      "type": "function"
    },
    {
      "inputs": [],
      "name": "calculateSettlementWeight",
      "outputs": [
        {
          "internalType": "uint256",
          "name": "",
          "type": "uint256"
        }
      ],
      "stateMutability": "nonpayable",
      "type": "function"
    }
  ],
  "bytecode": "0x60806040523480156200001157600080fd5b50604051620068f6380380620068f683398181016040526101408110156200003857600080fd5b81019080805160405193929190846401000000008211156200005957600080fd5b9083019060208201858111156200006f57600080fd5b82516401000000008111828201881017156200008a57600080fd5b82525081516020918201929091019080838360005b83811015620000b95781810151838201526020016200009f565b50505050905090810190601f168015620000e75780820380516001836020036101000a031916815260200191505b50604052602001805160405193929190846401000000008211156200010b57600080fd5b9083019060208201858111156200012157600080fd5b82516401000000008111828201881017156200013c57600080fd5b82525081516020918201929091019080838360005b838110156200016b57818101518382015260200162000151565b50505050905090810190601f168015620001995780820380516001836020036101000a031916815260200191505b506040908152602082810151918301516060840151608085015160a086015160c087015160e088015161010090980151600080546001600160a01b031916331790558c51979a5094985092969195909492939192620001fe916001918d019062001021565b508851620002149060029060208c019062001021565b50600480546001600160a01b03808b166001600160a01b031992831617909255600380548a84169083161790556005805489841690831617905560108790556006805492871692909116919091179055600883905560098290556007819055620002866001600160e01b036200029616565b50505050505050505050620010d1565b6008544211620002b957620002b36001600160e01b03620002eb16565b620002e9565b6009544211620002d657620002b36001600160e01b03620009d116565b620002e96001600160e01b0362000ada16565b565b6001600b54600160a01b900460ff1660028111156200030657fe5b1415620003455760405162461bcd60e51b8152600401808060200182810382526023815260200180620068d36023913960400191505060405180910390fd5b600b805460ff60a01b1916600160a01b17905560018054604080516020601f600260001961010087891615020190951694909404938401819004810282018101909252828152620004189390929091830182828015620003e95780601f10620003bd57610100808354040283529160200191620003e9565b820191906000526020600020905b815481529060010190602001808311620003cb57829003601f168201915b5050505050604051806040016040528060058152602001642d6c6f6e6760d81b81525062000beb60201b60201c565b60028054604080516020601f60001961010060018716150201909416859004938401819004810282018101909252828152620004d39390929091830182828015620004a75780601f106200047b57610100808354040283529160200191620004a7565b820191906000526020600020905b8154815290600101906020018083116200048957829003601f168201915b5050505050604051806040016040528060028152602001610b5b60f21b81525062000beb60201b60201c565b604051620004e190620010a6565b604080825283519082015282518190602080830191606084019187019080838360005b838110156200051e57818101518382015260200162000504565b50505050905090810190601f1680156200054c5780820380516001836020036101000a031916815260200191505b50838103825284518152845160209182019186019080838360005b838110156200058157818101518382015260200162000567565b50505050905090810190601f168015620005af5780820380516001836020036101000a031916815260200191505b50945050505050604051809103906000f080158015620005d3573d6000803e3d6000fd5b50600b80546001600160a01b0319166001600160a01b039290921691909117905560018054604080516020600261010085871615026000190190941693909304601f8101849004840282018401909252818152620006b5939092909190830182828015620006855780601f10620006595761010080835404028352916020019162000685565b820191906000526020600020905b8154815290600101906020018083116200066757829003601f168201915b5050505050604051806040016040528060068152602001650b5cda1bdc9d60d21b81525062000beb60201b60201c565b60028054604080516020601f60001961010060018716150201909416859004938401819004810282018101909252828152620007709390929091830182828015620007445780601f10620007185761010080835404028352916020019162000744565b820191906000526020600020905b8154815290600101906020018083116200072657829003601f168201915b5050505050604051806040016040528060028152602001612d7360f01b81525062000beb60201b60201c565b6040516200077e90620010a6565b604080825283519082015282518190602080830191606084019187019080838360005b83811015620007bb578181015183820152602001620007a1565b50505050905090810190601f168015620007e95780820380516001836020036101000a031916815260200191505b50838103825284518152845160209182019186019080838360005b838110156200081e57818101518382015260200162000804565b50505050905090810190601f1680156200084c5780820380516001836020036101000a031916815260200191505b50945050505050604051809103906000f08015801562000870573d6000803e3d6000fd5b50600a80546001600160a01b0319166001600160a01b03929092169190911790556008546040805190810182905260608082526001805460026101008284161502600019019091168190049284018390527f4d56b37a757972ff6078008ef1b0019ac2fab360c11b8d125eb6c57d5ba7eea4949193909281906020820190608083019087908015620009465780601f106200091a5761010080835404028352916020019162000946565b820191906000526020600020905b8154815290600101906020018083116200092857829003601f168201915b5050838103825285546002600019610100600184161502019091160480825260209091019086908015620009be5780601f106200099257610100808354040283529160200191620009be565b820191906000526020600020905b815481529060010190602001808311620009a057829003601f168201915b50509550505050505060405180910390a1565b6002600b54600160a01b900460ff166002811115620009ec57fe5b141562000a40576040805162461bcd60e51b815260206004820181905260248201527f4d757374206e6f7420626520696e20746865206973737565642073746174652e604482015290519081900360640190fd5b600b805460ff60a01b1916600160a11b17905560085462000a619062000caa565b600f5560085462000a7b906001600160e01b0362000cd416565b600e819055600954600f54601054604080513081526020810194909452838101949094526060830191909152608082015290517f39653e399eb3ba628cfa5419bd48adae6676d9f2281837082c0f59606f234f649181900360a00190a1565b6000600b54600160a01b900460ff16600281111562000af557fe5b141562000b49576040805162461bcd60e51b815260206004820152601460248201527f4d757374206e6f7420626520736574746c65642e000000000000000000000000604482015290519081900360640190fd5b600b805460ff60a01b1916905560085462000b649062000caa565b60125560085462000b7e906001600160e01b0362000cd416565b60115562000b946001600160e01b0362000cf816565b601381905560115460125460408051308152602081019390935282810191909152606082019290925290517f56fda3ee440aa5a213f97f23217ab0deed46936b367a7731cb1426a27c7577ce9181900360800190a1565b606082826040516020018083805190602001908083835b6020831062000c235780518252601f19909201916020918201910162000c02565b51815160209384036101000a600019018019909216911617905285519190930192850191508083835b6020831062000c6d5780518252601f19909201916020918201910162000c4c565b6001836020036101000a03801982511681845116808217855250505050505090500192505050604051602081830303815290604052905092915050565b60035460009062000cce906001600160a01b0316836001600160e01b0362000eac16565b92915050565b60045460009062000cce906001600160a01b0316836001600160e01b0362000eac16565b60055460115460408051638c28c79560e01b81526004810183905260248101929092525160009283926001600160a01b0390911691638c28c7959160448082019260209290919082900301818787803b15801562000d5557600080fd5b505af115801562000d6a573d6000803e3d6000fd5b505050506040513d602081101562000d8157600080fd5b5051600554600f5460125460408051638c28c79560e01b815260048101939093526024830191909152519293506000926001600160a01b0390921691638c28c7959160448082019260209290919082900301818787803b15801562000de557600080fd5b505af115801562000dfa573d6000803e3d6000fd5b505050506040513d602081101562000e1157600080fd5b505160055460105460408051636be02bd360e01b815260048101929092526024820186905260448201849052519293506001600160a01b0390911691636be02bd3916064808201926020929091908290030181600087803b15801562000e7657600080fd5b505af115801562000e8b573d6000803e3d6000fd5b505050506040513d602081101562000ea257600080fd5b5051925050505b90565b600080600090506000846001600160a01b031663f43b52cb6040518163ffffffff1660e01b815260040160206040518083038186803b15801562000eef57600080fd5b505afa15801562000f04573d6000803e3d6000fd5b505050506040513d602081101562000f1b57600080fd5b505190508381141562000f9357846001600160a01b03166396237c026040518163ffffffff1660e01b815260040160206040518083038186803b15801562000f6257600080fd5b505afa15801562000f77573d6000803e3d6000fd5b505050506040513d602081101562000f8e57600080fd5b505191505b83811115620010195760408051630d8d7e9560e41b81528583036004820181905291516001600160a01b0388169163d8d7e950916024808301926020929190829003018186803b15801562000fe757600080fd5b505afa15801562000ffc573d6000803e3d6000fd5b505050506040513d60208110156200101357600080fd5b50519250505b509392505050565b828054600181600116156101000203166002900490600052602060002090601f016020900481019282601f106200106457805160ff191683800117855562001094565b8280016001018555821562001094579182015b828111156200109457825182559160200191906001019062001077565b50620010a2929150620010b4565b5090565b611e6e8062004a6583390190565b62000ea991905b80821115620010a25760008155600101620010bb565b61398480620010e16000396000f3fe608060405260043610620000f25760003560e01c80636c2f1c4e116200008b578063a2e620451162000061578063a2e620451462000325578063cccaaba2146200033d578063e62fc29d146200036b578063ee81caa3146200038357620000f2565b80636c2f1c4e14620002795780636e270b0914620002b05780639266914114620002de57620000f2565b80634c595b4f11620000cd5780634c595b4f14620001bd5780634ec109f414620001fa578063640a47ab146200023357806364c98f5a146200024b57620000f2565b80632732410514620000f75780632fdcfbd21462000146578063345ae506146200018f575b600080fd5b3480156200010457600080fd5b5062000134600480360360408110156200011d57600080fd5b506001600160a01b038135169060200135620003b1565b60408051918252519081900360200190f35b3480156200015357600080fd5b506200018d600480360360608110156200016c57600080fd5b506001600160a01b0381358116916020810135909116906040013562000438565b005b3480156200019c57600080fd5b506200018d60048036036020811015620001b557600080fd5b5035620004c5565b348015620001ca57600080fd5b506200013460048036036040811015620001e357600080fd5b506001600160a01b038135169060200135620006db565b6200018d600480360360608110156200021257600080fd5b506001600160a01b0381358116916020810135909116906040013562000850565b3480156200024057600080fd5b506200018d62000972565b3480156200025857600080fd5b506200018d600480360360208110156200027157600080fd5b503562000ab1565b3480156200028657600080fd5b5062000134600480360360208110156200029f57600080fd5b50356001600160a01b031662000baa565b348015620002bd57600080fd5b506200013460048036036020811015620002d657600080fd5b503562000bfc565b348015620002eb57600080fd5b506200018d600480360360608110156200030457600080fd5b506001600160a01b0381358116916020810135909116906040013562000c17565b3480156200033257600080fd5b506200018d62000ddc565b3480156200034a57600080fd5b5062000134600480360360208110156200036357600080fd5b503562000e14565b3480156200037857600080fd5b506200013462000e24565b3480156200039057600080fd5b506200013460048036036020811015620003a957600080fd5b503562000fd7565b600080600b54600160a01b900460ff166002811115620003cd57fe5b1462000413576040805162461bcd60e51b815260206004820152601060248201526f26bab9ba1031329039b2ba3a3632b21760811b604482015290519081900360640190fd5b6000620004208462000baa565b90506200042e818462000ff2565b9150505b92915050565b604080516323b872dd60e01b81523060048201526001600160a01b038481166024830152604482018490529151918516916323b872dd916064808201926020929091908290030181600087803b1580156200049257600080fd5b505af1158015620004a7573d6000803e3d6000fd5b505050506040513d6020811015620004be57600080fd5b5050505050565b6001600b54600160a01b900460ff166002811115620004e057fe5b1462000533576040805162461bcd60e51b815260206004820152601f60248201527f4d75737420626520696e20746865206163746976617465642073746174652e00604482015290519081900360640190fd5b600654604080516313b0427d60e21b81526001600160a01b03909216600483015233602483015260448201839052513091634ec109f491606480830192600092919082900301818387803b1580156200058b57600080fd5b505af1158015620005a0573d6000803e3d6000fd5b505050506000620005b18262001068565b600c805482019055600a54604080516340c10f1960e01b81523360048201526024810184905290519293506001600160a01b03909116916340c10f199160448082019260009290919082900301818387803b1580156200061057600080fd5b505af115801562000625573d6000803e3d6000fd5b5050600b54604080516340c10f1960e01b81523360048201526024810186905290516001600160a01b0390921693506340c10f19925060448082019260009290919082900301818387803b1580156200067d57600080fd5b505af115801562000692573d6000803e3d6000fd5b5050604080513381526020810186905280820185905290517f9884ac07b515e86aa50132b88a1a2adf0cb3c16e862c61bec189054716caf57f9350908190036060019150a15050565b600080600090506000846001600160a01b031663f43b52cb6040518163ffffffff1660e01b815260040160206040518083038186803b1580156200071e57600080fd5b505afa15801562000733573d6000803e3d6000fd5b505050506040513d60208110156200074a57600080fd5b5051905083811415620007c257846001600160a01b03166396237c026040518163ffffffff1660e01b815260040160206040518083038186803b1580156200079157600080fd5b505afa158015620007a6573d6000803e3d6000fd5b505050506040513d6020811015620007bd57600080fd5b505191505b83811115620008485760408051630d8d7e9560e41b81528583036004820181905291516001600160a01b0388169163d8d7e950916024808301926020929190829003018186803b1580156200081657600080fd5b505afa1580156200082b573d6000803e3d6000fd5b505050506040513d60208110156200084257600080fd5b50519250505b509392505050565b60408051636eb1769f60e11b81526001600160a01b0384811660048301523060248301529151839286169163dd62ed3e916044808301926020929190829003018186803b158015620008a157600080fd5b505afa158015620008b6573d6000803e3d6000fd5b505050506040513d6020811015620008cd57600080fd5b50511015620008db57600080fd5b604080516323b872dd60e01b81526001600160a01b038481166004830152306024830152604482018490529151918516916323b872dd916064808201926020929091908290030181600087803b1580156200093557600080fd5b505af11580156200094a573d6000803e3d6000fd5b505050506040513d60208110156200096157600080fd5b50516200096d57600080fd5b505050565b6000600b54600160a01b900460ff1660028111156200098d57fe5b14620009d3576040805162461bcd60e51b815260206004820152601060248201526f26bab9ba1031329039b2ba3a3632b21760811b604482015290519081900360640190fd5b600a54604080516370a0823160e01b81523360048201819052915162000a5b936001600160a01b0316929183916370a0823191602480820192602092909190829003018186803b15801562000a2757600080fd5b505afa15801562000a3c573d6000803e3d6000fd5b505050506040513d602081101562000a5357600080fd5b505162000c17565b600b54604080516370a0823160e01b81523360048201819052915162000aaf936001600160a01b0316929183916370a0823191602480820192602092909190829003018186803b15801562000a2757600080fd5b565b6000546001600160a01b0316331462000afc5760405162461bcd60e51b8152600401808060200182810382526037815260200180620039186037913960400191505060405180910390fd5b600d5481111562000b0c57600080fd5b60065460008054604080516323b872dd60e01b81523060048201526001600160a01b03928316602482015260448101869052905191909316926323b872dd9260648083019360209390929083900390910190829087803b15801562000b7057600080fd5b505af115801562000b85573d6000803e3d6000fd5b505050506040513d602081101562000b9c57600080fd5b5050600d8054919091039055565b600b546000906001600160a01b038381169116141562000bce575060135462000bf7565b62000bf162000bde600162001087565b62000beb60135462001087565b620010a6565b600f0b90505b919050565b60045460009062000432906001600160a01b031683620006db565b6000600b54600160a01b900460ff16600281111562000c3257fe5b1462000c78576040805162461bcd60e51b815260206004820152601060248201526f26bab9ba1031329039b2ba3a3632b21760811b604482015290519081900360640190fd5b604080516313b0427d60e21b81526001600160a01b038581166004830152841660248201526044810183905290513091634ec109f491606480830192600092919082900301818387803b15801562000ccf57600080fd5b505af115801562000ce4573d6000803e3d6000fd5b50505050600062000cf68483620003b1565b9050600c5481101562000d0857600080fd5b600c80548290039055600654604080516317ee7de960e11b81526001600160a01b039283166004820152918516602483015260448201839052513091632fdcfbd291606480830192600092919082900301818387803b15801562000d6b57600080fd5b505af115801562000d80573d6000803e3d6000fd5b5050604080516001600160a01b038088168252881660208201528082018690526060810185905290517f878465c2280f29fdbb9b3866c510d1c4c5b84ffb0109bfe1287c3315972156c19350908190036080019150a150505050565b600854421162000df65762000df0620010f5565b62000aaf565b600954421162000e0a5762000df0620017c3565b62000aaf620018c3565b6000620004326007548362000ff2565b60055460115460408051638c28c79560e01b81526004810183905260248101929092525160009283926001600160a01b0390911691638c28c7959160448082019260209290919082900301818787803b15801562000e8157600080fd5b505af115801562000e96573d6000803e3d6000fd5b505050506040513d602081101562000ead57600080fd5b5051600554600f5460125460408051638c28c79560e01b815260048101939093526024830191909152519293506000926001600160a01b0390921691638c28c7959160448082019260209290919082900301818787803b15801562000f1157600080fd5b505af115801562000f26573d6000803e3d6000fd5b505050506040513d602081101562000f3d57600080fd5b505160055460105460408051636be02bd360e01b815260048101929092526024820186905260448201849052519293506001600160a01b0390911691636be02bd3916064808201926020929091908290030181600087803b15801562000fa257600080fd5b505af115801562000fb7573d6000803e3d6000fd5b505050506040513d602081101562000fce57600080fd5b50519250505090565b60035460009062000432906001600160a01b031683620006db565b600081620010035750600062000432565b600083600f0b12156200101557600080fd5b600f83900b6fffffffffffffffffffffffffffffffff8316810260401c90608084901c026001600160c01b038111156200104e57600080fd5b60401b81198111156200106057600080fd5b019392505050565b600080620010768362000e14565b600d80548201905590920392915050565b6000677fffffffffffffff8211156200109f57600080fd5b5060401b90565b6000600f82810b9084900b036f7fffffffffffffffffffffffffffffff198112801590620010e457506f7fffffffffffffffffffffffffffffff8113155b620010ee57600080fd5b9392505050565b6001600b54600160a01b900460ff1660028111156200111057fe5b14156200114f5760405162461bcd60e51b8152600401808060200182810382526023815260200180620038f56023913960400191505060405180910390fd5b600b805460ff60a01b1916600160a01b17905560018054604080516020601f6002600019610100878916150201909516949094049384018190048102820181019092528281526200121c9390929091830182828015620011f35780601f10620011c757610100808354040283529160200191620011f3565b820191906000526020600020905b815481529060010190602001808311620011d557829003601f168201915b5050505050604051806040016040528060058152602001642d6c6f6e6760d81b815250620019b9565b60028054604080516020601f60001961010060018716150201909416859004938401819004810282018101909252828152620012d19390929091830182828015620012ab5780601f106200127f57610100808354040283529160200191620012ab565b820191906000526020600020905b8154815290600101906020018083116200128d57829003601f168201915b5050505050604051806040016040528060028152602001610b5b60f21b815250620019b9565b604051620012df9062001a78565b604080825283519082015282518190602080830191606084019187019080838360005b838110156200131c57818101518382015260200162001302565b50505050905090810190601f1680156200134a5780820380516001836020036101000a031916815260200191505b50838103825284518152845160209182019186019080838360005b838110156200137f57818101518382015260200162001365565b50505050905090810190601f168015620013ad5780820380516001836020036101000a031916815260200191505b50945050505050604051809103906000f080158015620013d1573d6000803e3d6000fd5b50600b80546001600160a01b0319166001600160a01b039290921691909117905560018054604080516020600261010085871615026000190190941693909304601f8101849004840282018401909252818152620014ad939092909190830182828015620014835780601f10620014575761010080835404028352916020019162001483565b820191906000526020600020905b8154815290600101906020018083116200146557829003601f168201915b5050505050604051806040016040528060068152602001650b5cda1bdc9d60d21b815250620019b9565b60028054604080516020601f600019610100600187161502019094168590049384018190048102820181019092528281526200156293909290918301828280156200153c5780601f1062001510576101008083540402835291602001916200153c565b820191906000526020600020905b8154815290600101906020018083116200151e57829003601f168201915b5050505050604051806040016040528060028152602001612d7360f01b815250620019b9565b604051620015709062001a78565b604080825283519082015282518190602080830191606084019187019080838360005b83811015620015ad57818101518382015260200162001593565b50505050905090810190601f168015620015db5780820380516001836020036101000a031916815260200191505b50838103825284518152845160209182019186019080838360005b8381101562001610578181015183820152602001620015f6565b50505050905090810190601f1680156200163e5780820380516001836020036101000a031916815260200191505b50945050505050604051809103906000f08015801562001662573d6000803e3d6000fd5b50600a80546001600160a01b0319166001600160a01b03929092169190911790556008546040805190810182905260608082526001805460026101008284161502600019019091168190049284018390527f4d56b37a757972ff6078008ef1b0019ac2fab360c11b8d125eb6c57d5ba7eea4949193909281906020820190608083019087908015620017385780601f106200170c5761010080835404028352916020019162001738565b820191906000526020600020905b8154815290600101906020018083116200171a57829003601f168201915b5050838103825285546002600019610100600184161502019091160480825260209091019086908015620017b05780601f106200178457610100808354040283529160200191620017b0565b820191906000526020600020905b8154815290600101906020018083116200179257829003601f168201915b50509550505050505060405180910390a1565b6002600b54600160a01b900460ff166002811115620017de57fe5b141562001832576040805162461bcd60e51b815260206004820181905260248201527f4d757374206e6f7420626520696e20746865206973737565642073746174652e604482015290519081900360640190fd5b600b805460ff60a01b1916600160a11b179055600854620018539062000fd7565b600f55600854620018649062000bfc565b600e819055600954600f54601054604080513081526020810194909452838101949094526060830191909152608082015290517f39653e399eb3ba628cfa5419bd48adae6676d9f2281837082c0f59606f234f649181900360a00190a1565b6000600b54600160a01b900460ff166002811115620018de57fe5b141562001929576040805162461bcd60e51b815260206004820152601460248201527326bab9ba103737ba1031329039b2ba3a3632b21760611b604482015290519081900360640190fd5b600b805460ff60a01b19169055600854620019449062000fd7565b601255600854620019559062000bfc565b6011556200196262000e24565b601381905560115460125460408051308152602081019390935282810191909152606082019290925290517f56fda3ee440aa5a213f97f23217ab0deed46936b367a7731cb1426a27c7577ce9181900360800190a1565b606082826040516020018083805190602001908083835b60208310620019f15780518252601f199092019160209182019101620019d0565b51815160209384036101000a600019018019909216911617905285519190930192850191508083835b6020831062001a3b5780518252601f19909201916020918201910162001a1a565b6001836020036101000a03801982511681845116808217855250505050505090500192505050604051602081830303815290604052905092915050565b611e6e8062001a878339019056fe60806040523480156200001157600080fd5b5060405162001e6e38038062001e6e833981810160405260408110156200003757600080fd5b81019080805160405193929190846401000000008211156200005857600080fd5b9083019060208201858111156200006e57600080fd5b82516401000000008111828201881017156200008957600080fd5b82525081516020918201929091019080838360005b83811015620000b85781810151838201526020016200009e565b50505050905090810190601f168015620000e65780820380516001836020036101000a031916815260200191505b50604052602001805160405193929190846401000000008211156200010a57600080fd5b9083019060208201858111156200012057600080fd5b82516401000000008111828201881017156200013b57600080fd5b82525081516020918201929091019080838360005b838110156200016a57818101518382015260200162000150565b50505050905090810190601f168015620001985780820380516001836020036101000a031916815260200191505b50604052505082518391508290620001b890600490602085019062000458565b508051620001ce90600590602084019062000458565b50506006805461ff001960ff19909116601217169055506200020d6000620001fe6001600160e01b036200028516565b6001600160e01b036200028a16565b604080516a4d494e5445525f524f4c4560a81b8152905190819003600b0190206200024590620001fe6001600160e01b036200028516565b604080516a5041555345525f524f4c4560a81b8152905190819003600b0190206200027d90620001fe6001600160e01b036200028516565b5050620004fa565b335b90565b620002a9306001600160a01b03166200030060201b620015e51760201c565b15620002e75760405162461bcd60e51b815260040180806020018281038252603781526020018062001e376037913960400191505060405180910390fd5b620002fc82826001600160e01b036200033d16565b5050565b6000813f7fc5d2460186f7233c927e7db2dcc703c0e500b653ca82273b7bfad8045d85a4708181148015906200033557508115155b949350505050565b600082815260208181526040909120620003629183906200139a620003bf821b17901c565b15620002fc576200037b6001600160e01b036200028516565b6001600160a01b0316816001600160a01b0316837f2f8788117e7eff1d82e926ec794901d17c78024a50270940304540a733656f0d60405160405180910390a45050565b6000620003df836001600160a01b0384166001600160e01b03620003e816565b90505b92915050565b6000620003ff83836001600160e01b036200044016565b6200043757508154600181810184556000848152602080822090930184905584548482528286019093526040902091909155620003e2565b506000620003e2565b60009081526001919091016020526040902054151590565b828054600181600116156101000203166002900490600052602060002090601f016020900481019282601f106200049b57805160ff1916838001178555620004cb565b82800160010185558215620004cb579182015b82811115620004cb578251825591602001919060010190620004ae565b50620004d9929150620004dd565b5090565b6200028791905b80821115620004d95760008155600101620004e4565b61192d806200050a6000396000f3fe608060405234801561001057600080fd5b50600436106101a95760003560e01c806370a08231116100f9578063a457c2d711610097578063d539139311610071578063d53913931461051f578063d547741f14610527578063dd62ed3e14610553578063e63ab1e914610581576101a9565b8063a457c2d7146104aa578063a9059cbb146104d6578063ca15c87314610502576101a9565b80639010d07c116100d35780639010d07c1461042f57806391d148541461046e57806395d89b411461049a578063a217fddf146104a2576101a9565b806370a08231146103d557806379cc6790146103fb5780638456cb5914610427576101a9565b8063313ce567116101665780633f4ba83a116101405780633f4ba83a1461037c57806340c10f191461038457806342966c68146103b05780635c975abb146103cd576101a9565b8063313ce5671461030657806336568abe146103245780633950935114610350576101a9565b806306fdde03146101ae578063095ea7b31461022b57806318160ddd1461026b57806323b872dd14610285578063248a9ca3146102bb5780632f2ff15d146102d8575b600080fd5b6101b6610589565b6040805160208082528351818301528351919283929083019185019080838360005b838110156101f05781810151838201526020016101d8565b50505050905090810190601f16801561021d5780820380516001836020036101000a031916815260200191505b509250505060405180910390f35b6102576004803603604081101561024157600080fd5b506001600160a01b03813516906020013561061f565b604080519115158252519081900360200190f35b61027361063d565b60408051918252519081900360200190f35b6102576004803603606081101561029b57600080fd5b506001600160a01b03813581169160208101359091169060400135610643565b610273600480360360208110156102d157600080fd5b50356106d0565b610304600480360360408110156102ee57600080fd5b50803590602001356001600160a01b03166106e5565b005b61030e610751565b6040805160ff9092168252519081900360200190f35b6103046004803603604081101561033a57600080fd5b50803590602001356001600160a01b031661075a565b6102576004803603604081101561036657600080fd5b506001600160a01b0381351690602001356107bb565b61030461080f565b6103046004803603604081101561039a57600080fd5b506001600160a01b038135169060200135610880565b610304600480360360208110156103c657600080fd5b50356108f1565b610257610905565b610273600480360360208110156103eb57600080fd5b50356001600160a01b0316610913565b6103046004803603604081101561041157600080fd5b506001600160a01b03813516906020013561092e565b61030461098e565b6104526004803603604081101561044557600080fd5b50803590602001356109fd565b604080516001600160a01b039092168252519081900360200190f35b6102576004803603604081101561048457600080fd5b50803590602001356001600160a01b0316610a22565b6101b6610a40565b610273610aa1565b610257600480360360408110156104c057600080fd5b506001600160a01b038135169060200135610aa6565b610257600480360360408110156104ec57600080fd5b506001600160a01b038135169060200135610b14565b6102736004803603602081101561051857600080fd5b5035610b28565b610273610b3f565b6103046004803603604081101561053d57600080fd5b50803590602001356001600160a01b0316610b62565b6102736004803603604081101561056957600080fd5b506001600160a01b0381358116916020013516610bbb565b610273610be6565b60048054604080516020601f60026000196101006001881615020190951694909404938401819004810282018101909252828152606093909290918301828280156106155780601f106105ea57610100808354040283529160200191610615565b820191906000526020600020905b8154815290600101906020018083116105f857829003601f168201915b5050505050905090565b600061063361062c610c09565b8484610c0d565b5060015b92915050565b60035490565b6000610650848484610cf9565b6106c68461065c610c09565b6106c185604051806060016040528060288152602001611793602891396001600160a01b038a1660009081526002602052604081209061069a610c09565b6001600160a01b03168152602081019190915260400160002054919063ffffffff610e6216565b610c0d565b5060019392505050565b60009081526020819052604090206002015490565b60008281526020819052604090206002015461070890610703610c09565b610a22565b6107435760405162461bcd60e51b815260040180806020018281038252602f815260200180611667602f913960400191505060405180910390fd5b61074d8282610ef9565b5050565b60065460ff1690565b610762610c09565b6001600160a01b0316816001600160a01b0316146107b15760405162461bcd60e51b815260040180806020018281038252602f81526020018061189f602f913960400191505060405180910390fd5b61074d8282610f68565b60006106336107c8610c09565b846106c185600260006107d9610c09565b6001600160a01b03908116825260208083019390935260409182016000908120918c16815292529020549063ffffffff610fd716565b604080516a5041555345525f524f4c4560a81b8152905190819003600b01902061083b90610703610c09565b6108765760405162461bcd60e51b81526004018080602001828103825260338152602001806117306033913960400191505060405180910390fd5b61087e611031565b565b604080516a4d494e5445525f524f4c4560a81b8152905190819003600b0190206108ac90610703610c09565b6108e75760405162461bcd60e51b81526004018080602001828103825260308152602001806117636030913960400191505060405180910390fd5b61074d82826110d5565b6109026108fc610c09565b826111d3565b50565b600654610100900460ff1690565b6001600160a01b031660009081526001602052604090205490565b600061096b826040518060600160405280602481526020016117ec6024913961095e86610959610c09565b610bbb565b919063ffffffff610e6216565b905061097f83610979610c09565b83610c0d565b61098983836111d3565b505050565b604080516a5041555345525f524f4c4560a81b8152905190819003600b0190206109ba90610703610c09565b6109f55760405162461bcd60e51b81526004018080602001828103825260318152602001806117bb6031913960400191505060405180910390fd5b61087e6112db565b6000828152602081905260408120610a1b908363ffffffff61136316565b9392505050565b6000828152602081905260408120610a1b908363ffffffff61136f16565b60058054604080516020601f60026000196101006001881615020190951694909404938401819004810282018101909252828152606093909290918301828280156106155780601f106105ea57610100808354040283529160200191610615565b600081565b6000610633610ab3610c09565b846106c18560405180606001604052806025815260200161187a6025913960026000610add610c09565b6001600160a01b03908116825260208083019390935260409182016000908120918d1681529252902054919063ffffffff610e6216565b6000610633610b21610c09565b8484610cf9565b600081815260208190526040812061063790611384565b604080516a4d494e5445525f524f4c4560a81b8152905190819003600b01902081565b600082815260208190526040902060020154610b8090610703610c09565b6107b15760405162461bcd60e51b81526004018080602001828103825260308152602001806117006030913960400191505060405180910390fd5b6001600160a01b03918216600090815260026020908152604080832093909416825291909152205490565b604080516a5041555345525f524f4c4560a81b8152905190819003600b01902081565b3390565b6001600160a01b038316610c525760405162461bcd60e51b81526004018080602001828103825260248152602001806118566024913960400191505060405180910390fd5b6001600160a01b038216610c975760405162461bcd60e51b81526004018080602001828103825260228152602001806116b86022913960400191505060405180910390fd5b6001600160a01b03808416600081815260026020908152604080832094871680845294825291829020859055815185815291517f8c5be1e5ebec7d5bd14f71427d1e84f3dd0314c0f7b2291e5b200ac8c7c3b9259281900390910190a3505050565b6001600160a01b038316610d3e5760405162461bcd60e51b81526004018080602001828103825260258152602001806118316025913960400191505060405180910390fd5b6001600160a01b038216610d835760405162461bcd60e51b81526004018080602001828103825260238152602001806116446023913960400191505060405180910390fd5b610d8e83838361138f565b610dd1816040518060600160405280602681526020016116da602691396001600160a01b038616600090815260016020526040902054919063ffffffff610e6216565b6001600160a01b038085166000908152600160205260408082209390935590841681522054610e06908263ffffffff610fd716565b6001600160a01b0380841660008181526001602090815260409182902094909455805185815290519193928716927fddf252ad1be2c89b69c2b068fc378daa952ba7f163c4a11628f55a4df523b3ef92918290030190a3505050565b60008184841115610ef15760405162461bcd60e51b81526004018080602001828103825283818151815260200191508051906020019080838360005b83811015610eb6578181015183820152602001610e9e565b50505050905090810190601f168015610ee35780820380516001836020036101000a031916815260200191505b509250505060405180910390fd5b505050900390565b6000828152602081905260409020610f17908263ffffffff61139a16565b1561074d57610f24610c09565b6001600160a01b0316816001600160a01b0316837f2f8788117e7eff1d82e926ec794901d17c78024a50270940304540a733656f0d60405160405180910390a45050565b6000828152602081905260409020610f86908263ffffffff6113af16565b1561074d57610f93610c09565b6001600160a01b0316816001600160a01b0316837ff6391f5c32d9c69d2a47ea670b442974b53935d1edc7fd64eb21e047a839171b60405160405180910390a45050565b600082820183811015610a1b576040805162461bcd60e51b815260206004820152601b60248201527f536166654d6174683a206164646974696f6e206f766572666c6f770000000000604482015290519081900360640190fd5b600654610100900460ff16611084576040805162461bcd60e51b815260206004820152601460248201527314185d5cd8589b194e881b9bdd081c185d5cd95960621b604482015290519081900360640190fd5b6006805461ff00191690557f5db9ee0a495bf2e6ff9c91a7834c1ba4fdd244a5e8aa4e537bd38aeae4b073aa6110b8610c09565b604080516001600160a01b039092168252519081900360200190a1565b6001600160a01b038216611130576040805162461bcd60e51b815260206004820152601f60248201527f45524332303a206d696e7420746f20746865207a65726f206164647265737300604482015290519081900360640190fd5b61113c6000838361138f565b60035461114f908263ffffffff610fd716565b6003556001600160a01b03821660009081526001602052604090205461117b908263ffffffff610fd716565b6001600160a01b03831660008181526001602090815260408083209490945583518581529351929391927fddf252ad1be2c89b69c2b068fc378daa952ba7f163c4a11628f55a4df523b3ef9281900390910190a35050565b6001600160a01b0382166112185760405162461bcd60e51b81526004018080602001828103825260218152602001806118106021913960400191505060405180910390fd5b6112248260008361138f565b61126781604051806060016040528060228152602001611696602291396001600160a01b038516600090815260016020526040902054919063ffffffff610e6216565b6001600160a01b038316600090815260016020526040902055600354611293908263ffffffff6113c416565b6003556040805182815290516000916001600160a01b038516917fddf252ad1be2c89b69c2b068fc378daa952ba7f163c4a11628f55a4df523b3ef9181900360200190a35050565b600654610100900460ff161561132b576040805162461bcd60e51b815260206004820152601060248201526f14185d5cd8589b194e881c185d5cd95960821b604482015290519081900360640190fd5b6006805461ff0019166101001790557f62e78cea01bee320cd4e420270b5ea74000d11b0c9f74754ebdbfc544b05a2586110b8610c09565b6000610a1b8383611406565b6000610a1b836001600160a01b03841661146a565b600061063782611482565b610989838383611486565b6000610a1b836001600160a01b0384166114d5565b6000610a1b836001600160a01b03841661151f565b6000610a1b83836040518060400160405280601e81526020017f536166654d6174683a207375627472616374696f6e206f766572666c6f770000815250610e62565b815460009082106114485760405162461bcd60e51b81526004018080602001828103825260228152602001806116226022913960400191505060405180910390fd5b82600001828154811061145757fe5b9060005260206000200154905092915050565b60009081526001919091016020526040902054151590565b5490565b611491838383610989565b611499610905565b156109895760405162461bcd60e51b815260040180806020018281038252602a8152602001806118ce602a913960400191505060405180910390fd5b60006114e1838361146a565b61151757508154600181810184556000848152602080822090930184905584548482528286019093526040902091909155610637565b506000610637565b600081815260018301602052604081205480156115db578354600019808301919081019060009087908390811061155257fe5b906000526020600020015490508087600001848154811061156f57fe5b60009182526020808320909101929092558281526001898101909252604090209084019055865487908061159f57fe5b60019003818190600052602060002001600090559055866001016000878152602001908152602001600020600090556001945050505050610637565b6000915050610637565b6000813f7fc5d2460186f7233c927e7db2dcc703c0e500b653ca82273b7bfad8045d85a47081811480159061161957508115155b94935050505056fe456e756d657261626c655365743a20696e646578206f7574206f6620626f756e647345524332303a207472616e7366657220746f20746865207a65726f2061646472657373416363657373436f6e74726f6c3a2073656e646572206d75737420626520616e2061646d696e20746f206772616e7445524332303a206275726e20616d6f756e7420657863656564732062616c616e636545524332303a20617070726f766520746f20746865207a65726f206164647265737345524332303a207472616e7366657220616d6f756e7420657863656564732062616c616e6365416363657373436f6e74726f6c3a2073656e646572206d75737420626520616e2061646d696e20746f207265766f6b6545524332304d696e7465725061757365723a206d75737420686176652070617573657220726f6c6520746f20756e706175736545524332304d696e7465725061757365723a206d7573742068617665206d696e74657220726f6c6520746f206d696e7445524332303a207472616e7366657220616d6f756e74206578636565647320616c6c6f77616e636545524332304d696e7465725061757365723a206d75737420686176652070617573657220726f6c6520746f20706175736545524332303a206275726e20616d6f756e74206578636565647320616c6c6f77616e636545524332303a206275726e2066726f6d20746865207a65726f206164647265737345524332303a207472616e736665722066726f6d20746865207a65726f206164647265737345524332303a20617070726f76652066726f6d20746865207a65726f206164647265737345524332303a2064656372656173656420616c6c6f77616e63652062656c6f77207a65726f416363657373436f6e74726f6c3a2063616e206f6e6c792072656e6f756e636520726f6c657320666f722073656c6645524332305061757361626c653a20746f6b656e207472616e73666572207768696c6520706175736564a264697066735822122065e89d6e3c44f3bacad0c8161cadfdf0092b1e1d87677e259c5d5a32b6f10ce164736f6c63430006020033416363657373436f6e74726f6c3a20726f6c65732063616e6e6f7420626520736574757020616674657220636f6e737472756374696f6e4d757374206e6f7420626520696e20746865206163746976617465642073746174652e46756e6374696f6e2063616e206f6e6c792062652072756e20627920746865206f776e6572206f66207468697320636f6e74726163742ea2646970667358221220f091a60963272419be6a05953c76e89e901af85d678a21eac26fefaa936ee49564736f6c6343000602003360806040523480156200001157600080fd5b5060405162001e6e38038062001e6e833981810160405260408110156200003757600080fd5b81019080805160405193929190846401000000008211156200005857600080fd5b9083019060208201858111156200006e57600080fd5b82516401000000008111828201881017156200008957600080fd5b82525081516020918201929091019080838360005b83811015620000b85781810151838201526020016200009e565b50505050905090810190601f168015620000e65780820380516001836020036101000a031916815260200191505b50604052602001805160405193929190846401000000008211156200010a57600080fd5b9083019060208201858111156200012057600080fd5b82516401000000008111828201881017156200013b57600080fd5b82525081516020918201929091019080838360005b838110156200016a57818101518382015260200162000150565b50505050905090810190601f168015620001985780820380516001836020036101000a031916815260200191505b50604052505082518391508290620001b890600490602085019062000458565b508051620001ce90600590602084019062000458565b50506006805461ff001960ff19909116601217169055506200020d6000620001fe6001600160e01b036200028516565b6001600160e01b036200028a16565b604080516a4d494e5445525f524f4c4560a81b8152905190819003600b0190206200024590620001fe6001600160e01b036200028516565b604080516a5041555345525f524f4c4560a81b8152905190819003600b0190206200027d90620001fe6001600160e01b036200028516565b5050620004fa565b335b90565b620002a9306001600160a01b03166200030060201b620015e51760201c565b15620002e75760405162461bcd60e51b815260040180806020018281038252603781526020018062001e376037913960400191505060405180910390fd5b620002fc82826001600160e01b036200033d16565b5050565b6000813f7fc5d2460186f7233c927e7db2dcc703c0e500b653ca82273b7bfad8045d85a4708181148015906200033557508115155b949350505050565b600082815260208181526040909120620003629183906200139a620003bf821b17901c565b15620002fc576200037b6001600160e01b036200028516565b6001600160a01b0316816001600160a01b0316837f2f8788117e7eff1d82e926ec794901d17c78024a50270940304540a733656f0d60405160405180910390a45050565b6000620003df836001600160a01b0384166001600160e01b03620003e816565b90505b92915050565b6000620003ff83836001600160e01b036200044016565b6200043757508154600181810184556000848152602080822090930184905584548482528286019093526040902091909155620003e2565b506000620003e2565b60009081526001919091016020526040902054151590565b828054600181600116156101000203166002900490600052602060002090601f016020900481019282601f106200049b57805160ff1916838001178555620004cb565b82800160010185558215620004cb579182015b82811115620004cb578251825591602001919060010190620004ae565b50620004d9929150620004dd565b5090565b6200028791905b80821115620004d95760008155600101620004e4565b61192d806200050a6000396000f3fe608060405234801561001057600080fd5b50600436106101a95760003560e01c806370a08231116100f9578063a457c2d711610097578063d539139311610071578063d53913931461051f578063d547741f14610527578063dd62ed3e14610553578063e63ab1e914610581576101a9565b8063a457c2d7146104aa578063a9059cbb146104d6578063ca15c87314610502576101a9565b80639010d07c116100d35780639010d07c1461042f57806391d148541461046e57806395d89b411461049a578063a217fddf146104a2576101a9565b806370a08231146103d557806379cc6790146103fb5780638456cb5914610427576101a9565b8063313ce567116101665780633f4ba83a116101405780633f4ba83a1461037c57806340c10f191461038457806342966c68146103b05780635c975abb146103cd576101a9565b8063313ce5671461030657806336568abe146103245780633950935114610350576101a9565b806306fdde03146101ae578063095ea7b31461022b57806318160ddd1461026b57806323b872dd14610285578063248a9ca3146102bb5780632f2ff15d146102d8575b600080fd5b6101b6610589565b6040805160208082528351818301528351919283929083019185019080838360005b838110156101f05781810151838201526020016101d8565b50505050905090810190601f16801561021d5780820380516001836020036101000a031916815260200191505b509250505060405180910390f35b6102576004803603604081101561024157600080fd5b506001600160a01b03813516906020013561061f565b604080519115158252519081900360200190f35b61027361063d565b60408051918252519081900360200190f35b6102576004803603606081101561029b57600080fd5b506001600160a01b03813581169160208101359091169060400135610643565b610273600480360360208110156102d157600080fd5b50356106d0565b610304600480360360408110156102ee57600080fd5b50803590602001356001600160a01b03166106e5565b005b61030e610751565b6040805160ff9092168252519081900360200190f35b6103046004803603604081101561033a57600080fd5b50803590602001356001600160a01b031661075a565b6102576004803603604081101561036657600080fd5b506001600160a01b0381351690602001356107bb565b61030461080f565b6103046004803603604081101561039a57600080fd5b506001600160a01b038135169060200135610880565b610304600480360360208110156103c657600080fd5b50356108f1565b610257610905565b610273600480360360208110156103eb57600080fd5b50356001600160a01b0316610913565b6103046004803603604081101561041157600080fd5b506001600160a01b03813516906020013561092e565b61030461098e565b6104526004803603604081101561044557600080fd5b50803590602001356109fd565b604080516001600160a01b039092168252519081900360200190f35b6102576004803603604081101561048457600080fd5b50803590602001356001600160a01b0316610a22565b6101b6610a40565b610273610aa1565b610257600480360360408110156104c057600080fd5b506001600160a01b038135169060200135610aa6565b610257600480360360408110156104ec57600080fd5b506001600160a01b038135169060200135610b14565b6102736004803603602081101561051857600080fd5b5035610b28565b610273610b3f565b6103046004803603604081101561053d57600080fd5b50803590602001356001600160a01b0316610b62565b6102736004803603604081101561056957600080fd5b506001600160a01b0381358116916020013516610bbb565b610273610be6565b60048054604080516020601f60026000196101006001881615020190951694909404938401819004810282018101909252828152606093909290918301828280156106155780601f106105ea57610100808354040283529160200191610615565b820191906000526020600020905b8154815290600101906020018083116105f857829003601f168201915b5050505050905090565b600061063361062c610c09565b8484610c0d565b5060015b92915050565b60035490565b6000610650848484610cf9565b6106c68461065c610c09565b6106c185604051806060016040528060288152602001611793602891396001600160a01b038a1660009081526002602052604081209061069a610c09565b6001600160a01b03168152602081019190915260400160002054919063ffffffff610e6216565b610c0d565b5060019392505050565b60009081526020819052604090206002015490565b60008281526020819052604090206002015461070890610703610c09565b610a22565b6107435760405162461bcd60e51b815260040180806020018281038252602f815260200180611667602f913960400191505060405180910390fd5b61074d8282610ef9565b5050565b60065460ff1690565b610762610c09565b6001600160a01b0316816001600160a01b0316146107b15760405162461bcd60e51b815260040180806020018281038252602f81526020018061189f602f913960400191505060405180910390fd5b61074d8282610f68565b60006106336107c8610c09565b846106c185600260006107d9610c09565b6001600160a01b03908116825260208083019390935260409182016000908120918c16815292529020549063ffffffff610fd716565b604080516a5041555345525f524f4c4560a81b8152905190819003600b01902061083b90610703610c09565b6108765760405162461bcd60e51b81526004018080602001828103825260338152602001806117306033913960400191505060405180910390fd5b61087e611031565b565b604080516a4d494e5445525f524f4c4560a81b8152905190819003600b0190206108ac90610703610c09565b6108e75760405162461bcd60e51b81526004018080602001828103825260308152602001806117636030913960400191505060405180910390fd5b61074d82826110d5565b6109026108fc610c09565b826111d3565b50565b600654610100900460ff1690565b6001600160a01b031660009081526001602052604090205490565b600061096b826040518060600160405280602481526020016117ec6024913961095e86610959610c09565b610bbb565b919063ffffffff610e6216565b905061097f83610979610c09565b83610c0d565b61098983836111d3565b505050565b604080516a5041555345525f524f4c4560a81b8152905190819003600b0190206109ba90610703610c09565b6109f55760405162461bcd60e51b81526004018080602001828103825260318152602001806117bb6031913960400191505060405180910390fd5b61087e6112db565b6000828152602081905260408120610a1b908363ffffffff61136316565b9392505050565b6000828152602081905260408120610a1b908363ffffffff61136f16565b60058054604080516020601f60026000196101006001881615020190951694909404938401819004810282018101909252828152606093909290918301828280156106155780601f106105ea57610100808354040283529160200191610615565b600081565b6000610633610ab3610c09565b846106c18560405180606001604052806025815260200161187a6025913960026000610add610c09565b6001600160a01b03908116825260208083019390935260409182016000908120918d1681529252902054919063ffffffff610e6216565b6000610633610b21610c09565b8484610cf9565b600081815260208190526040812061063790611384565b604080516a4d494e5445525f524f4c4560a81b8152905190819003600b01902081565b600082815260208190526040902060020154610b8090610703610c09565b6107b15760405162461bcd60e51b81526004018080602001828103825260308152602001806117006030913960400191505060405180910390fd5b6001600160a01b03918216600090815260026020908152604080832093909416825291909152205490565b604080516a5041555345525f524f4c4560a81b8152905190819003600b01902081565b3390565b6001600160a01b038316610c525760405162461bcd60e51b81526004018080602001828103825260248152602001806118566024913960400191505060405180910390fd5b6001600160a01b038216610c975760405162461bcd60e51b81526004018080602001828103825260228152602001806116b86022913960400191505060405180910390fd5b6001600160a01b03808416600081815260026020908152604080832094871680845294825291829020859055815185815291517f8c5be1e5ebec7d5bd14f71427d1e84f3dd0314c0f7b2291e5b200ac8c7c3b9259281900390910190a3505050565b6001600160a01b038316610d3e5760405162461bcd60e51b81526004018080602001828103825260258152602001806118316025913960400191505060405180910390fd5b6001600160a01b038216610d835760405162461bcd60e51b81526004018080602001828103825260238152602001806116446023913960400191505060405180910390fd5b610d8e83838361138f565b610dd1816040518060600160405280602681526020016116da602691396001600160a01b038616600090815260016020526040902054919063ffffffff610e6216565b6001600160a01b038085166000908152600160205260408082209390935590841681522054610e06908263ffffffff610fd716565b6001600160a01b0380841660008181526001602090815260409182902094909455805185815290519193928716927fddf252ad1be2c89b69c2b068fc378daa952ba7f163c4a11628f55a4df523b3ef92918290030190a3505050565b60008184841115610ef15760405162461bcd60e51b81526004018080602001828103825283818151815260200191508051906020019080838360005b83811015610eb6578181015183820152602001610e9e565b50505050905090810190601f168015610ee35780820380516001836020036101000a031916815260200191505b509250505060405180910390fd5b505050900390565b6000828152602081905260409020610f17908263ffffffff61139a16565b1561074d57610f24610c09565b6001600160a01b0316816001600160a01b0316837f2f8788117e7eff1d82e926ec794901d17c78024a50270940304540a733656f0d60405160405180910390a45050565b6000828152602081905260409020610f86908263ffffffff6113af16565b1561074d57610f93610c09565b6001600160a01b0316816001600160a01b0316837ff6391f5c32d9c69d2a47ea670b442974b53935d1edc7fd64eb21e047a839171b60405160405180910390a45050565b600082820183811015610a1b576040805162461bcd60e51b815260206004820152601b60248201527f536166654d6174683a206164646974696f6e206f766572666c6f770000000000604482015290519081900360640190fd5b600654610100900460ff16611084576040805162461bcd60e51b815260206004820152601460248201527314185d5cd8589b194e881b9bdd081c185d5cd95960621b604482015290519081900360640190fd5b6006805461ff00191690557f5db9ee0a495bf2e6ff9c91a7834c1ba4fdd244a5e8aa4e537bd38aeae4b073aa6110b8610c09565b604080516001600160a01b039092168252519081900360200190a1565b6001600160a01b038216611130576040805162461bcd60e51b815260206004820152601f60248201527f45524332303a206d696e7420746f20746865207a65726f206164647265737300604482015290519081900360640190fd5b61113c6000838361138f565b60035461114f908263ffffffff610fd716565b6003556001600160a01b03821660009081526001602052604090205461117b908263ffffffff610fd716565b6001600160a01b03831660008181526001602090815260408083209490945583518581529351929391927fddf252ad1be2c89b69c2b068fc378daa952ba7f163c4a11628f55a4df523b3ef9281900390910190a35050565b6001600160a01b0382166112185760405162461bcd60e51b81526004018080602001828103825260218152602001806118106021913960400191505060405180910390fd5b6112248260008361138f565b61126781604051806060016040528060228152602001611696602291396001600160a01b038516600090815260016020526040902054919063ffffffff610e6216565b6001600160a01b038316600090815260016020526040902055600354611293908263ffffffff6113c416565b6003556040805182815290516000916001600160a01b038516917fddf252ad1be2c89b69c2b068fc378daa952ba7f163c4a11628f55a4df523b3ef9181900360200190a35050565b600654610100900460ff161561132b576040805162461bcd60e51b815260206004820152601060248201526f14185d5cd8589b194e881c185d5cd95960821b604482015290519081900360640190fd5b6006805461ff0019166101001790557f62e78cea01bee320cd4e420270b5ea74000d11b0c9f74754ebdbfc544b05a2586110b8610c09565b6000610a1b8383611406565b6000610a1b836001600160a01b03841661146a565b600061063782611482565b610989838383611486565b6000610a1b836001600160a01b0384166114d5565b6000610a1b836001600160a01b03841661151f565b6000610a1b83836040518060400160405280601e81526020017f536166654d6174683a207375627472616374696f6e206f766572666c6f770000815250610e62565b815460009082106114485760405162461bcd60e51b81526004018080602001828103825260228152602001806116226022913960400191505060405180910390fd5b82600001828154811061145757fe5b9060005260206000200154905092915050565b60009081526001919091016020526040902054151590565b5490565b611491838383610989565b611499610905565b156109895760405162461bcd60e51b815260040180806020018281038252602a8152602001806118ce602a913960400191505060405180910390fd5b60006114e1838361146a565b61151757508154600181810184556000848152602080822090930184905584548482528286019093526040902091909155610637565b506000610637565b600081815260018301602052604081205480156115db578354600019808301919081019060009087908390811061155257fe5b906000526020600020015490508087600001848154811061156f57fe5b60009182526020808320909101929092558281526001898101909252604090209084019055865487908061159f57fe5b60019003818190600052602060002001600090559055866001016000878152602001908152602001600020600090556001945050505050610637565b6000915050610637565b6000813f7fc5d2460186f7233c927e7db2dcc703c0e500b653ca82273b7bfad8045d85a47081811480159061161957508115155b94935050505056fe456e756d657261626c655365743a20696e646578206f7574206f6620626f756e647345524332303a207472616e7366657220746f20746865207a65726f2061646472657373416363657373436f6e74726f6c3a2073656e646572206d75737420626520616e2061646d696e20746f206772616e7445524332303a206275726e20616d6f756e7420657863656564732062616c616e636545524332303a20617070726f766520746f20746865207a65726f206164647265737345524332303a207472616e7366657220616d6f756e7420657863656564732062616c616e6365416363657373436f6e74726f6c3a2073656e646572206d75737420626520616e2061646d696e20746f207265766f6b6545524332304d696e7465725061757365723a206d75737420686176652070617573657220726f6c6520746f20756e706175736545524332304d696e7465725061757365723a206d7573742068617665206d696e74657220726f6c6520746f206d696e7445524332303a207472616e7366657220616d6f756e74206578636565647320616c6c6f77616e636545524332304d696e7465725061757365723a206d75737420686176652070617573657220726f6c6520746f20706175736545524332303a206275726e20616d6f756e74206578636565647320616c6c6f77616e636545524332303a206275726e2066726f6d20746865207a65726f206164647265737345524332303a207472616e736665722066726f6d20746865207a65726f206164647265737345524332303a20617070726f76652066726f6d20746865207a65726f206164647265737345524332303a2064656372656173656420616c6c6f77616e63652062656c6f77207a65726f416363657373436f6e74726f6c3a2063616e206f6e6c792072656e6f756e636520726f6c657320666f722073656c6645524332305061757361626c653a20746f6b656e207472616e73666572207768696c6520706175736564a264697066735822122065e89d6e3c44f3bacad0c8161cadfdf0092b1e1d87677e259c5d5a32b6f10ce164736f6c63430006020033416363657373436f6e74726f6c3a20726f6c65732063616e6e6f7420626520736574757020616674657220636f6e737472756374696f6e4d757374206e6f7420626520696e20746865206163746976617465642073746174652e",
  "source": "pragma solidity >=0.4.22 <0.7.0;\n//pragma solidity ^0.4.2;\nimport \"./Oracle.sol\";\n//import \"./DerivativeToken.sol\";\nimport \"./PayoutContract.sol\";\nimport \"./lib/ABDKMath64x64.sol\";\nimport \"@openzeppelin/contracts/deploy-ready/ERC20MinterPauser.sol\";\nimport \"@openzeppelin/contracts/token/ERC20/ERC20.sol\";\n\n//import \"github.com/Arachnid/solidity-stringutils/strings.sol\";\n\ncontract Vault {\n    enum VaultState { SETTLED, ACTIVATED, ISSUED }\n    address owner;\n    string name;\n    string symbol;\n    //\n    Oracle collateralOracle;\n    Oracle assetOracle;\n    PayoutContract payoutContract;\n    ERC20 collateralToken; //0xdac17f958d2ee523a2206206994597c13d831ec7\n    uint256 vaultIssuanceFee;\n\n    //uint256 activationTime; //seconds\n    //    uint256 preIssuanceDuration;\n      //uint256 issuanceDuration;\n        //bool isRepeating;\n\n\n    uint256 issuanceTime;\n    uint256 settlementTime;\n\n    ERC20MinterPauser shortToken;\n    ERC20MinterPauser longToken;\n\n    VaultState state;\n\n    uint256 totalCollateral;\n    uint256 accumulatedVaultFees;\n\n    uint256 assetIssuancePrice; //U0\n    uint256 collateralIssuancePrice; //S0\n    uint256 issuanceWeight; //W0\n\n    uint256 assetSettlementPrice; //UT\n    uint256 collateralSettlementPrice; //ST\n    uint256 settlementWeight; //WT\n\n      //modifiers\n      modifier onlyOwner { require(msg.sender == owner, \"Function can only be run by the owner of this contract.\");\n          _;\n      }\n\n      modifier onlyActivated { require(state == VaultState.ACTIVATED, \"Must be in the activated state.\" );\n        _;\n      }\n      modifier notActive { require(state != VaultState.ACTIVATED, \"Must not be in the activated state.\" );\n        _;\n      }\n      modifier onlyIssued { require(state == VaultState.ISSUED, \"Must be in the issued state.\" );\n        _;\n      }\n      modifier notIssued { require(state != VaultState.ISSUED, \"Must not be in the issued state.\" );\n        _;\n      }\n      modifier onlySettled { require(state == VaultState.SETTLED , \"Must be settled.\"); _;  }\n      modifier notSettled { require(state != VaultState.SETTLED , \"Must not be settled.\"); _;  }\n\n\n\n    //events\n      event VaultActivated( string name, string symbol, uint256 issuanceTime);\n      event VaultIssued(address vault, uint256 settlementTime, uint256 assetPrice, uint256 collateralPrice, uint256 weight);\n      event VaultSettled(address vault, uint256 assetPrice, uint256 collateralPrice, uint256 weight);\n\n      event DerivativeSettled(address account, address contractAddress, uint256 amount, uint256 settlementAmount);\n      event DerivativePurchased(address account, uint256 amount, uint256 settlementAmount);\n\n\nconstructor(string memory _name, string memory _symbol, Oracle _assetOracle, Oracle _collateralOracle, PayoutContract _payoutContract, uint256 _issuanceWeight, address _collateralToken, uint256 _issuanceTime, uint256 _settlementTime, uint256 _vaultIssuanceFee) public {\n      owner = msg.sender;\n      name = _name;\n      symbol = _symbol;\n      assetOracle = _assetOracle;\n      collateralOracle = _collateralOracle;\n      payoutContract = _payoutContract;\n      issuanceWeight = _issuanceWeight;\n      collateralToken = ERC20(_collateralToken);\n      issuanceTime = _issuanceTime;\n      settlementTime = _settlementTime;\n      vaultIssuanceFee = _vaultIssuanceFee;\n      update();\n}\n\n  function update() public {\n    if (block.timestamp <= issuanceTime) {\n      activate();\n    } else if (block.timestamp <= settlementTime) {\n      issue();\n    } else {\n      settle();\n    }\n  }\n\n  function activate() notActive internal {\n    state = VaultState.ACTIVATED;\n    longToken = new ERC20MinterPauser(concat(name,\"-long\"), concat(symbol,\"-l\"));\n    shortToken = new ERC20MinterPauser(concat(name,\"-short\"), concat(symbol, \"-s\"));\n    emit VaultActivated(name, symbol, issuanceTime);\n  }\n\n  function concat(string memory _s1, string memory _s2)\n          pure\n          internal\n          returns(string memory) {\n            return string(abi.encodePacked(bytes(_s1), bytes(_s2)));\n}\n\n    function purchaseDerivatives(uint256 amount) public onlyActivated {\n      this.receiveToken(collateralToken, msg.sender, amount);\n      uint256 newAmount = collectFees(amount);\n      totalCollateral += newAmount;\n      ERC20MinterPauser(shortToken).mint(msg.sender, newAmount);\n      ERC20MinterPauser(longToken).mint(msg.sender, newAmount);\n      emit DerivativePurchased(msg.sender, amount, newAmount);\n    }\n\n    function receiveToken(ERC20 contractAddress, address from, uint256 amount) payable external {\n      require(contractAddress.allowance(from, address(this)) >= amount);\n      require(contractAddress.transferFrom(from, address(this), amount));\n    }\n\n    function sendToken(ERC20 contractAddress, address recipicient, uint256 amount) external {\n         contractAddress.transferFrom(address(this), recipicient, amount);\n    }\n\n  function collectFees(uint256 amount) internal returns (uint256) {\n    uint256 fees = calculateVaultFees(amount);\n    accumulatedVaultFees += fees;\n    return amount - fees;\n  }\n\n  function calculateVaultFees(uint256 amount) public returns (uint256) {\n    return ABDKMath64x64.mulu(int128(vaultIssuanceFee), amount);\n  }\n\n  function withdrawVaultFees(uint256 amount) public onlyOwner {\n    require(amount <= accumulatedVaultFees);\n    collateralToken.transferFrom(address(this), owner, amount);\n    accumulatedVaultFees -= amount;\n  }\n\n  function issue() internal notIssued {\n    state = VaultState.ISSUED;\n    collateralIssuancePrice = fetchCollateralPrice(issuanceTime);\n    assetIssuancePrice = fetchAssetPrice(issuanceTime);\n    emit VaultIssued(address(this), settlementTime, assetIssuancePrice, collateralIssuancePrice, issuanceWeight);\n  }\n\n  function fetchAssetPrice(uint256 timestamp) public  returns (uint256) {\n    return fetchPrice(assetOracle, timestamp);\n  }\n\n  function fetchCollateralPrice(uint256 timeStamp) public returns (uint256) {\n    return fetchPrice(collateralOracle, timeStamp);\n  }\n\n  function fetchPrice(Oracle _oracleAddress, uint256 timestamp) public returns (uint256){\n    uint256 price = 0;\n    uint256 oracleTimeStamp = _oracleAddress.getLatestTimestamp();\n    if (oracleTimeStamp == timestamp) {\n      price = uint256(_oracleAddress.getLatestAnswer());\n    }\n    if (oracleTimeStamp > timestamp) {\n      uint256 back = oracleTimeStamp - timestamp;\n      price = uint256(_oracleAddress.getPreviousAnswer(back));\n    }\n    return price;\n  }\n\n  function settle() notSettled internal {\n    state = VaultState.SETTLED;\n    collateralSettlementPrice = fetchCollateralPrice(issuanceTime);\n    assetSettlementPrice = fetchAssetPrice(issuanceTime);\n    settlementWeight = calculateSettlementWeight();\n    emit VaultSettled(address(this), assetSettlementPrice, collateralSettlementPrice, settlementWeight);\n  }\n\n  function settleAccount() public onlySettled {\n    settle(shortToken, msg.sender, shortToken.balanceOf(msg.sender));\n    settle(longToken, msg.sender, longToken.balanceOf(msg.sender));\n  }\n\n  function settle(ERC20 contractAddress, address user, uint256 amount) public onlySettled  {\n    this.receiveToken(contractAddress, user, amount);\n    uint256 settlementAmount = getSettlementAmount(contractAddress, amount);\n    require(settlementAmount >= totalCollateral);\n    totalCollateral -= settlementAmount;\n    this.sendToken(collateralToken, user, settlementAmount);\n    emit DerivativeSettled(user, address(contractAddress), amount, settlementAmount);\n  }\n\nfunction getSettlementAmount(ERC20 contractAddress, uint256 amount) public onlySettled returns (uint256)  {\n  uint256 weight = getSettlementWeight(contractAddress);\n  return uint256(ABDKMath64x64.mulu(int128(weight), amount));\n}\n\nfunction getSettlementWeight(ERC20 contractAddress) public returns (uint256) {\n  if (address(contractAddress) == address(longToken)) {\n    return settlementWeight;\n  } else {\n    return uint256(ABDKMath64x64.sub(ABDKMath64x64.fromUInt(1), ABDKMath64x64.fromUInt(settlementWeight)));\n  }\n}\n\nfunction calculateSettlementWeight() public returns (uint256) {\n  uint256 normalizedAssetChange = payoutContract.normalizedChange(assetSettlementPrice, assetSettlementPrice);\n  uint256 normalizedCollateralChange = payoutContract.normalizedChange(collateralIssuancePrice, collateralSettlementPrice);\n  return payoutContract.calculateWeight(issuanceWeight, normalizedAssetChange, normalizedCollateralChange);\n}\n\n\n}\n",
  "sourcePath": "/Users/chasesmith/projects/derivative/contracts/Vault.sol",
  "compiler": {
    "name": "solc",
    "version": "0.6.2+commit.bacdbe57.Emscripten.clang"
  },
  "schemaVersion": "3.0.23",
  "updatedAt": "2020-04-08T02:12:58.306Z",
  "devdoc": {
    "methods": {}
  },
  "userdoc": {
    "methods": {}
  }
}