{
  "contractName": "VaultManager",
  "abi": [
    {
      "inputs": [
        {
          "internalType": "contract ERC20",
          "name": "_collateralToken",
          "type": "address"
        },
        {
          "internalType": "uint256",
          "name": "_vaultCreationFee",
          "type": "uint256"
        }
      ],
      "stateMutability": "nonpayable",
      "type": "constructor"
    },
    {
      "anonymous": false,
      "inputs": [
        {
          "indexed": false,
          "internalType": "address",
          "name": "oracle",
          "type": "address"
        },
        {
          "indexed": false,
          "internalType": "string",
          "name": "name",
          "type": "string"
        },
        {
          "indexed": false,
          "internalType": "address",
          "name": "dataReference",
          "type": "address"
        }
      ],
      "name": "OracleAdded",
      "type": "event"
    },
    {
      "anonymous": false,
      "inputs": [
        {
          "indexed": false,
          "internalType": "address",
          "name": "oracle",
          "type": "address"
        },
        {
          "indexed": false,
          "internalType": "string",
          "name": "name",
          "type": "string"
        },
        {
          "indexed": false,
          "internalType": "address",
          "name": "dataReference",
          "type": "address"
        }
      ],
      "name": "OracleCreated",
      "type": "event"
    },
    {
      "anonymous": false,
      "inputs": [
        {
          "indexed": false,
          "internalType": "address",
          "name": "oracle",
          "type": "address"
        },
        {
          "indexed": false,
          "internalType": "string",
          "name": "name",
          "type": "string"
        },
        {
          "indexed": false,
          "internalType": "address",
          "name": "dataReference",
          "type": "address"
        }
      ],
      "name": "OracleRemoved",
      "type": "event"
    },
    {
      "anonymous": false,
      "inputs": [
        {
          "indexed": false,
          "internalType": "address",
          "name": "payoutContract",
          "type": "address"
        }
      ],
      "name": "PayoutContractAdded",
      "type": "event"
    },
    {
      "anonymous": false,
      "inputs": [
        {
          "indexed": false,
          "internalType": "address",
          "name": "payoutContract",
          "type": "address"
        }
      ],
      "name": "PayoutContractRemoved",
      "type": "event"
    },
    {
      "anonymous": false,
      "inputs": [
        {
          "indexed": false,
          "internalType": "address",
          "name": "vault",
          "type": "address"
        },
        {
          "indexed": false,
          "internalType": "string",
          "name": "name",
          "type": "string"
        }
      ],
      "name": "VaultCreated",
      "type": "event"
    },
    {
      "inputs": [],
      "name": "getOracles",
      "outputs": [
        {
          "internalType": "address[]",
          "name": "",
          "type": "address[]"
        }
      ],
      "stateMutability": "view",
      "type": "function"
    },
    {
      "inputs": [],
      "name": "getPayoutContracts",
      "outputs": [
        {
          "internalType": "address[]",
          "name": "",
          "type": "address[]"
        }
      ],
      "stateMutability": "view",
      "type": "function"
    },
    {
      "inputs": [
        {
          "internalType": "uint256",
          "name": "amount",
          "type": "uint256"
        }
      ],
      "name": "withdrawFees",
      "outputs": [],
      "stateMutability": "nonpayable",
      "type": "function"
    }
  ],
  "bytecode": "0x608060405234801561001057600080fd5b5060405161035e38038061035e8339818101604052604081101561003357600080fd5b508051602090910151600080546001600160a01b03199081163317909155600391909155600480546001600160a01b03909316929091169190911790556102df8061007f6000396000f3fe608060405234801561001057600080fd5b50600436106100415760003560e01c806329b6f3b71461004657806340884c521461009e5780635e318e07146100a6575b600080fd5b61004e6100c5565b60408051602080825283518183015283519192839290830191858101910280838360005b8381101561008a578181015183820152602001610072565b505050509050019250505060405180910390f35b61004e610127565b6100c3600480360360208110156100bc57600080fd5b5035610187565b005b6060600180548060200260200160405190810160405280929190818152602001828054801561011d57602002820191906000526020600020905b81546001600160a01b031681526001909101906020018083116100ff575b5050505050905090565b6060600280548060200260200160405190810160405280929190818152602001828054801561011d576020028201919060005260206000209081546001600160a01b031681526001909101906020018083116100ff575050505050905090565b6000546001600160a01b031633146101d05760405162461bcd60e51b81526004018080602001828103825260378152602001806102736037913960400191505060405180910390fd5b806005541061026f576004805460008054604080516323b872dd60e01b815230958101959095526001600160a01b03918216602486015260448501869052519216926323b872dd9260648083019360209383900390910190829087803b15801561023957600080fd5b505af115801561024d573d6000803e3d6000fd5b505050506040513d602081101561026357600080fd5b50506005805482900390555b5056fe46756e6374696f6e2063616e206f6e6c792062652072756e20627920746865206f776e6572206f66207468697320636f6e74726163742ea2646970667358221220f60fec24070457c9371969105b707fe85447f7fa6e80a7666a7a898fed52ee9164736f6c63430006020033",
  "source": "pragma solidity >=0.4.22 <0.7.0;\n\nimport \"./Oracle.sol\";\nimport \"./Vault.sol\";\nimport \"./PayoutContract.sol\";\nimport \"@openzeppelin/contracts/token/ERC20/ERC20.sol\";\n\ncontract VaultManager {\n  //@param\n  address owner;\n  address[] payoutContracts;\n  address[] oracles;\n  uint256 vaultCreationFee;\n  ERC20 collateralToken;\n  uint256 accumulatedVaultFees;\n\n  //modifiers\n  modifier onlyOwner { require(msg.sender == owner, \"Function can only be run by the owner of this contract.\");\n      _;\n  }\n\n  //events\n    event OracleCreated(address oracle, string name, address dataReference);\n    event OracleRemoved(address oracle, string name, address dataReference);\n    event OracleAdded(address oracle, string name, address dataReference);\n    event VaultCreated(address vault, string name);\n    event PayoutContractRemoved(address payoutContract);\n    event PayoutContractAdded(address payoutContract);\n\n\n  constructor(ERC20 _collateralToken, uint256 _vaultCreationFee) public {\n    owner = msg.sender;\n    vaultCreationFee = _vaultCreationFee;\n    collateralToken = _collateralToken;\n  }\n\n  /* function createVault(address oracleAddress) public returns (uint256) {\n    //this.collectVaultCreationFee(msg.sender, tradingDuration);\n    return new Vault(referenceDataAddress);\n  } */\n\n  /* function createOracle(address referenceDataAddress) public returns (uint256) {\n    oracle = new Oracle(referenceDataAddress);\n    return oracle;\n  } */\n\n\n\n  /* function addOracle(address oracle) onlyOwner {\n      this.oracles.push(oracle);\n  }\n    function removeOracle() onlyOwner {\n      this.oracles.pop(oracle);\n    } */\n    function getOracles() public view returns (address[] memory) {\n      return oracles;\n    }\n\n  /* function addPayoutContract(address payoutContract) onlyOwner {\n    this.payoutContracts[payoutContract] = true;\n  }\n  function removePayoutContract(address payoutContract) onlyOwner {\n    this.payoutContracts[payoutContract] = false;\n  } */\n  function getPayoutContracts() public view returns (address[] memory) {\n    return payoutContracts;\n  }\n\n  function receiveTokens(ERC20 contractAddress, address from, uint256 amount) internal returns (bool) {\n    require(contractAddress.allowance(from, address(this)) >= amount);\n    require(contractAddress.transferFrom(from, address(this), amount));\n  }\n\n  function withdrawFees(uint256 amount) public onlyOwner {\n       if (accumulatedVaultFees >= amount) {\n         collateralToken.transferFrom(address(this), owner, amount);\n         accumulatedVaultFees -= amount;\n       }\n     }\n  }\n",
  "sourcePath": "/Users/chasesmith/projects/derivative/contracts/VaultManager.sol",
  "compiler": {
    "name": "solc",
    "version": "0.6.2+commit.bacdbe57.Emscripten.clang"
  },
  "schemaVersion": "3.0.23",
  "updatedAt": "2020-04-08T02:12:58.324Z",
  "devdoc": {
    "methods": {}
  },
  "userdoc": {
    "methods": {}
  }
}