{
  "contractName": "Whitelisted",
  "abi": [
    {
      "anonymous": false,
      "inputs": [
        {
          "indexed": false,
          "internalType": "address",
          "name": "user",
          "type": "address"
        }
      ],
      "name": "AddedToWhitelist",
      "type": "event"
    },
    {
      "anonymous": false,
      "inputs": [
        {
          "indexed": true,
          "internalType": "address",
          "name": "from",
          "type": "address"
        },
        {
          "indexed": true,
          "internalType": "address",
          "name": "to",
          "type": "address"
        }
      ],
      "name": "OwnershipTransferRequested",
      "type": "event"
    },
    {
      "anonymous": false,
      "inputs": [
        {
          "indexed": true,
          "internalType": "address",
          "name": "from",
          "type": "address"
        },
        {
          "indexed": true,
          "internalType": "address",
          "name": "to",
          "type": "address"
        }
      ],
      "name": "OwnershipTransfered",
      "type": "event"
    },
    {
      "anonymous": false,
      "inputs": [
        {
          "indexed": false,
          "internalType": "address",
          "name": "user",
          "type": "address"
        }
      ],
      "name": "RemovedFromWhitelist",
      "type": "event"
    },
    {
      "inputs": [],
      "name": "acceptOwnership",
      "outputs": [],
      "stateMutability": "nonpayable",
      "type": "function"
    },
    {
      "inputs": [],
      "name": "owner",
      "outputs": [
        {
          "internalType": "address payable",
          "name": "",
          "type": "address"
        }
      ],
      "stateMutability": "view",
      "type": "function"
    },
    {
      "inputs": [
        {
          "internalType": "address",
          "name": "_to",
          "type": "address"
        }
      ],
      "name": "transferOwnership",
      "outputs": [],
      "stateMutability": "nonpayable",
      "type": "function"
    },
    {
      "inputs": [
        {
          "internalType": "address",
          "name": "",
          "type": "address"
        }
      ],
      "name": "whitelisted",
      "outputs": [
        {
          "internalType": "bool",
          "name": "",
          "type": "bool"
        }
      ],
      "stateMutability": "view",
      "type": "function"
    },
    {
      "inputs": [
        {
          "internalType": "address",
          "name": "_user",
          "type": "address"
        }
      ],
      "name": "addToWhitelist",
      "outputs": [],
      "stateMutability": "nonpayable",
      "type": "function"
    },
    {
      "inputs": [
        {
          "internalType": "address",
          "name": "_user",
          "type": "address"
        }
      ],
      "name": "removeFromWhitelist",
      "outputs": [],
      "stateMutability": "nonpayable",
      "type": "function"
    }
  ],
  "bytecode": "0x6080604052600080546001600160a01b03191633179055610456806100256000396000f3fe608060405234801561001057600080fd5b50600436106100625760003560e01c806379ba5097146100675780638ab1d681146100715780638da5cb5b14610097578063d936547e146100bb578063e43252d7146100f5578063f2fde38b1461011b575b600080fd5b61006f610141565b005b61006f6004803603602081101561008757600080fd5b50356001600160a01b03166101f0565b61009f6102a0565b604080516001600160a01b039092168252519081900360200190f35b6100e1600480360360208110156100d157600080fd5b50356001600160a01b03166102af565b604080519115158252519081900360200190f35b61006f6004803603602081101561010b57600080fd5b50356001600160a01b03166102c4565b61006f6004803603602081101561013157600080fd5b50356001600160a01b0316610377565b6001546001600160a01b03163314610199576040805162461bcd60e51b815260206004820152601660248201527526bab9ba10313290383937b837b9b2b21037bbb732b960511b604482015290519081900360640190fd5b60008054336001600160a01b0319808316821784556001805490911690556040516001600160a01b0390921692909183917f0d18b5fd22306e373229b9439188228edca81207d1667f604daf6cef8aa3ee6791a350565b6000546001600160a01b03163314610248576040805162461bcd60e51b815260206004820152601660248201527527b7363c9031b0b63630b1363290313c9037bbb732b960511b604482015290519081900360640190fd5b6001600160a01b038116600081815260026020908152604091829020805460ff19169055815192835290517fcdd2e9b91a56913d370075169cefa1602ba36be5301664f752192bb1709df7579281900390910190a150565b6000546001600160a01b031681565b60026020526000908152604090205460ff1681565b6000546001600160a01b0316331461031c576040805162461bcd60e51b815260206004820152601660248201527527b7363c9031b0b63630b1363290313c9037bbb732b960511b604482015290519081900360640190fd5b6001600160a01b038116600081815260026020908152604091829020805460ff19166001179055815192835290517fa850ae9193f515cbae8d35e8925bd2be26627fc91bce650b8652ed254e9cab039281900390910190a150565b6000546001600160a01b031633146103cf576040805162461bcd60e51b815260206004820152601660248201527527b7363c9031b0b63630b1363290313c9037bbb732b960511b604482015290519081900360640190fd5b600180546001600160a01b0319166001600160a01b0383811691821790925560008054604051929316917fed8889f560326eb138920d842192f0eb3dd22b4f139c87a2c57538e05bae12789190a35056fea26469706673582212208be07af2f27155ec8a1b74a1b952c2f600140d50562379bfe125a603795a70e664736f6c63430006020033",
  "source": "pragma solidity ^0.6.0;\n\nimport \"../Owned.sol\";\n\n/**\n * @title Whitelisted\n * @notice Allows the owner to add and remove addresses from a whitelist\n */\ncontract Whitelisted is Owned {\n\n  mapping(address => bool) public whitelisted;\n\n  event AddedToWhitelist(address user);\n  event RemovedFromWhitelist(address user);\n\n  /**\n   * @notice Adds an address to the whitelist\n   * @param _user The address to whitelist\n   */\n  function addToWhitelist(address _user) external onlyOwner() {\n    whitelisted[_user] = true;\n    emit AddedToWhitelist(_user);\n  }\n\n  /**\n   * @notice Removes an address from the whitelist\n   * @param _user The address to remove\n   */\n  function removeFromWhitelist(address _user) external onlyOwner() {\n    delete whitelisted[_user];\n    emit RemovedFromWhitelist(_user);\n  }\n\n  /**\n   * @dev reverts if the caller is not whitelisted\n   */\n  modifier isWhitelisted() {\n    require(whitelisted[msg.sender], \"Not whitelisted\");\n    _;\n  }\n}\n",
  "sourcePath": "@chainlink/contracts/src/v0.6/dev/Whitelisted.sol",
  "compiler": {
    "name": "solc",
    "version": "0.6.2+commit.bacdbe57.Emscripten.clang"
  },
  "schemaVersion": "3.0.23",
  "updatedAt": "2020-04-08T02:12:58.366Z",
  "devdoc": {
    "methods": {
      "acceptOwnership()": {
        "details": "Allows an ownership transfer to be completed by the recipient."
      },
      "addToWhitelist(address)": {
        "params": {
          "_user": "The address to whitelist"
        }
      },
      "removeFromWhitelist(address)": {
        "params": {
          "_user": "The address to remove"
        }
      },
      "transferOwnership(address)": {
        "details": "Allows an owner to begin transferring ownership to a new address, pending."
      }
    },
    "title": "Whitelisted"
  },
  "userdoc": {
    "methods": {
      "addToWhitelist(address)": {
        "notice": "Adds an address to the whitelist"
      },
      "removeFromWhitelist(address)": {
        "notice": "Removes an address from the whitelist"
      }
    },
    "notice": "Allows the owner to add and remove addresses from a whitelist"
  }
}